:020000040800F2
:10000000F83D0020F1460108B9440108BB4401084D
:10001000BD440108BF440108C144010800000000BC
:10002000000000000000000000000000C3440108C0
:10003000C544010800000000C7440108C944010884
:10004000174801081B4801081F48010823480108F8
:10005000274801082B4801082F48010833480108A8
:10006000374801083B4801083F4801084348010858
:10007000474801084B4801084F4801085348010808
:10008000574801085B4801085F48010863480108B8
:10009000674801086B4801086F4801087348010868
:1000A000774801087B4801087F4801088348010818
:1000B000874801088B4801088F48010893480108C8
:1000C000974801089B4801089F480108A348010878
:1000D000A7480108AB480108AF480108B348010828
:1000E000B7480108BB480108BF480108C3480108D8
:1000F000C7480108CB480108CF480108D348010888
:10010000D7480108DB480108DF480108E348010837
:10011000E7480108EB480108EF480108F3480108E7
:10012000F7480108FB480108FF4801080349010896
:10013000074901080B4901080F4901081349010843
:10014000174901081B4901081F49010823490108F3
:10015000274901082B4901082F49010833490108A3
:10016000374901083B4901083F4901084349010853
:10017000474901084B4901084F49010800000000A8
:1001800053490108574901085B4901085F490108C3
:1001900063490108674901086B4901086F49010873
:1001A00073490108774901087B4901087F49010823
:1001B00083490108874901088B4901088F490108D3
:1001C000934901089749010871250108D93C0108A4
:1001D000E147010839450108000000000000000067
:1001E00014140101EC010008100A0D00A000FF002A
:1001F000F801000878120008050501004012000807
:10020000060601002C1200080A0A02000412000867
:100210000A0A0200DC1100080A0A0200B4110008F0
:100220000A0A02008C110008060601007811000875
:100230000A0A020050110008060601003C110008DD
:100240000D0D02001411000806060100001100083F
:100250000A0A0200D81000080B0B0200B0100008B8
:10026000060601009C1000080D0D02007410000825
:100270000A0A02004C1000080707010038100008A5
:100280000A0A02001010000806060100FC0F000810
:1002900006060100E80F000806060100D40F00085A
:1002A0000A0A0200AC0F00080A0A0200840F0008C4
:1002B00005050100700F0008060601005C0F00082C
:1002C00006060100480F000807070100340F000868
:1002D0000A0A02000C0F00080F0F0200E40E0008CB
:1002E0000F0F0200BC0E00080F0F0200940E000852
:1002F0000B0B02006C0E00080C0C0200440E0008F0
:100300000C0C02001C0E00080C0C0200F40D00087E
:100310000C0C0200CC0D00080C0C0200A40D00080F
:100320000C0C02007C0D000812120300400D0008A6
:100330000D0D0200180D00080C0C0200F00C000856
:100340000C0C0200C80C00080C0C0200A00C0008E9
:100350000C0C0200780C000805050100640C000874
:1003600005050100500C0008050501003C0C0008C3
:1003700005050100280C00080D0D0200000C000806
:100380000D0D0200D80B00080E0E0200B00B000885
:100390000E0E0200880B00080E0E0200600B000813
:1003A0000E0E0200380B00080E0E0200100B0008A3
:1003B0000B0B0200E80A00080E0E0200C00A00083B
:1003C0000D0D0200980A00080D0D0200700A0008C9
:1003D0000D0D0200480A00080D0D0200200A000859
:1003E0000C0C0200F80900080C0C0200D0090008EF
:1003F0000B0B0200A80900080A0A02008009000885
:100400000A0A0200580900080A0A02003009000816
:100410000A0A0200080900080A0A0200E0080008A7
:100420000A0A0200B808000810100200900800082C
:1004300009090200680800080A0A020040080008CA
:100440000A0A0200180800080A0A0200F007000859
:100450000A0A0200C807000805050100B4070008E1
:1004600005050100A0070008050501008C0700082C
:1004700005050100780700080A0A02005007000875
:100480000A0A0200280700080A0A020000070008FA
:100490000A0A0200D80600080A0A0200B00600088C
:1004A0000A0A0200880600080A0A0200600600081C
:1004B0000A0A0200380600080A0A020010060008AC
:1004C0000A0A0200E80500080A0A0200C00500083E
:1004D0000A0A0200980500080A0A020070050008CE
:1004E00009090200480500080A0A02002005000860
:1004F00009090200F80400080000000000003300B1
:1005000033000000C180C180630063003300360007
:100510001E001E000C000C000C001800780070007B
:100520000000000000006000600060006E007F00BE
:100530007380618061806180618073807F006E0064
:1005400060006000600060000000000000000C001F
:1005500018000000C180C1806300630033003600D2
:100560001E001E000C000C000C001800780070002B
:100570000000000000003300330000006180618053
:100580006180618061806180618063807F803D8067
:1005900000000000000000000000000000001E003D
:1005A00033000000618061806180618061806180D2
:1005B000618063807F803D800000000000000000BB
:1005C00000000000000006000C0000006180618057
:1005D0006180618061806180618063807F803D8017
:1005E00000000000000000000000000000001800F3
:1005F0000C000000618061806180618061806180A9
:10060000618063807F803D8000000000000000006A
:100610000000000000000000000000001D803F00FE
:10062000730067806D806980798033807F006E0001
:1006300000000000000000000000000000000000BA
:10064000000000000C000C000000FFC0FFC0000014
:100650000C000C0000000000000000000000000082
:100660000000000000003300330000001E003F00C7
:100670007380618061806180618073803F001E00B3
:100680000000000000000000000000000D001F003E
:10069000160000001E003F00738061806180618051
:1006A000618073803F001E00000000000000000019
:1006B0000000000000001E00330000001E003F008C
:1006C0007380618061806180618073803F001E0063
:1006D0000000000000000000000000000000060014
:1006E0000C0000001E003F0073806180618061800B
:1006F000618073803F001E000000000000000000C9
:1007000000000000000018000C0000001E003F0068
:100710007380618061806180618073803F001E0012
:100720000000000000000000000000000D001F009D
:10073000160000006F007F807180618061806180A1
:100740006180618061806180000000000000000025
:100750000000000000000A000C0012001F003F0013
:100760007380618061806180618073803F001E00C2
:100770000000000000000000000000C8C800303089
:100780003030303030303030000000000000007871
:10079000C8003030303030303030303000000000B1
:1007A0000000001830003030303030303030303021
:1007B0000000000000000060300030303030303089
:1007C0003030303000000000000000000000330036
:1007D000330000001E003F00730061807F807F8037
:1007E000600071803F001E0000000000000000005B
:1007F0000000000000001E00330000001E003F004B
:10080000730061807F807F80600071803F001E00E8
:1008100000000000000000000000000000000600D2
:100820000C0000001E003F00730061807F807F800D
:10083000600071803F001E0000000000000000000A
:1008400000000000000018000C0000001E003F0027
:10085000730061807F807F80600071803F001E0098
:100860000000000000000000000000000000000088
:10087000000000001E003F00730060006000600088
:10088000600073003F001E0008000C000400180008
:100890000000000000000000000000001F3C3FFEC0
:1008A00061C607833FFF79FF618063C77FFE3E3CDF
:1008B0000000000000000000000000000E000A0020
:1008C0000E0000001F003F80618007803F8079801C
:1008D000618063807F803D80000000000000000098
:1008E0000000000000003300330000001F003F80C4
:1008F000618007803F807980618063807F803D8058
:100900000000000000000000000000000D001F00BB
:10091000160000001F003F80618007803F807980C3
:10092000618063807F803D80000000000000000047
:100930000000000000001E00330000001F003F8088
:10094000618007803F807980618063807F803D8007
:100950000000000000000000000000000000060091
:100960000C0000001F003F80618007803F8079807D
:10097000618063807F803D800000000000000000F7
:100980000000000000000C00060000001F003F8077
:10099000618007803F807980618063807F803D80B7
:1009A00000000000000000000000000000001C002B
:1009B0003F0063006300620066006600670061C07C
:1009C00060C06CC06FC06700000000000000000045
:1009D000000000000000600060007F807FC060E0D9
:1009E00060606060606060E07FC07F806000600089
:1009F0000000000000000000030006000000E0709E
:100A0000606030C039C019800F000F00060006007A
:100A100006000600060006000000000000000000BE
:100A20000CC00CC00000603060306030603060305E
:100A30006030603060306030603070703FE00F8058
:100A4000000000000000000007800CC000006030C3
:100A50006030603060306030603060306030603016
:100A6000603070703FE00F80000000000000000068
:100A7000030006000000603060306030603060309D
:100A80006030603060306030603070703FE00F8008
:100A900000000000000000000600030000006030BD
:100AA00060306030603060306030603060306030C6
:100AB000603070703FE00F80000000000000000018
:100AC0000000000000000FD81FF03870307860D8A8
:100AD00061986318661866187C3038703FE06FC004
:100AE0000000000000000000000000000000000006
:100AF0000000000031803B801F000E001F003B8083
:100B00003180000000000000000000000000000034
:100B10000CC00CC0000007C01FE0387030306018F7
:100B20006018601860186018303038701FE0078057
:100B3000000000000000000003400780058007C09F
:100B40001FE0387030306018601860186018601846
:100B5000303038701FE00780000000000000000007
:100B600007800CC0000007C01FE0387030306018EC
:100B70006018601860186018303038701FE0078007
:100B8000000000000000000001800300000007C01A
:100B90001FE03870303060186018601860186018F6
:100BA000303038701FE007800000000000000000B7
:100BB00006000300000007C01FE0387030306018E6
:100BC0006018601860186018303038701FE00780B7
:100BD000000000000000000006800F000B006030E5
:100BE0007030783078306C3066306730633061B0A8
:100BF00060F060F0607060300000000000000000F5
:100C00000000000000007F807FC060E06070603006
:100C1000FE30FE3060306030607060E07FC07F800A
:100C200000000000000000009898006060606060B4
:100C3000606060606060606000000000F0980060CC
:100C40006060606060606060606060600000000024
:100C50003060006060606060606060606060606024
:100C600000000000C0600060606060606060606004
:100C700060606060000000001980198000007FE063
:100C80007FE06000600060007FC07FC060006000A7
:100C9000600060007FE07FE00000000000000000D6
:100CA0000F00198000007FE07FE0600060006000BE
:100CB0007FC07FC060006000600060007FE07FE078
:100CC00000000000000000000300060000007FE0BC
:100CD0007FE06000600060007FC07FC06000600057
:100CE000600060007FE07FE0000000000000000086
:100CF0000C00060000007FE07FE060006000600004
:100D00007FC07FC060006000600060007FE07FE027
:100D100000000000000000000000000000000F8044
:100D20001FE03870303060006000600060006000DC
:100D3000303038601FE00780020003000100060029
:100D400000000000000000000003FF8003FF800699
:100D500060000660000C6000187F80187F803060A3
:100D6000003FE0007FE000606000C07F80C07F80C7
:100D700000000000000000000000000000000E0065
:100D80000A000E000E001B001B001B00318031808A
:100D90003F807FC060C060C0C060C06000000000D5
:100DA000000000001980198000000E000E001B00DA
:100DB0001B001B00318031803F807FC060C060C05D
:100DC000C060C06000000000000000000D001E00B8
:100DD00016000E000E001B001B001B00318031802E
:100DE0003F807FC060C060C0C060C0600000000085
:100DF000000000000F00198000000E000E001B0014
:100E00001B001B00318031803F807FC060C060C00C
:100E1000C060C060000000000000000006000C0080
:100E200000000E000E001B001B001B0031803180F3
:100E30003F807FC060C060C0C060C0600000000034
:100E4000000000000C00060000000E000E001B0059
:100E50001B001B00318031803F807FC060C060C0BC
:100E6000C060C06000000000000000000000000042
:100E700000000000000000000C000C0000000C004E
:100E80000C000C00180038007000600060C071C0D9
:100E90003F801F00000000000000700CD8181830C0
:100EA00060601860D8C0718C031C031C063C0C6C7D
:100EB000187E180C00000000000000000000000078
:100EC0000000181838187830586018C018C0199CDD
:100ED00003260606060C0C181830303E00000000F1
:100EE0000000000000000000000018183830786092
:100EF000586018C019801B0C031C061C0C2C186CA5
:100F0000187E300C0000000000000000000000000F
:100F100000000000000000000000CC00660033006C
:100F20001980198033006600CC000000000000002A
:100F3000000000000000003844C6C6C66438000047
:100F40000000000000000000000000183878581869
:100F50001818000000000000000000000000000061
:100F600000000000000000000000000020301060C1
:100F70000000000000000000003030000000000011
:100F8000000000000000000000003FC07FC0F980AA
:100F9000F980F980F9807980198019801980198089
:100FA0001980198019801980198000000000000044
:100FB00000000000000000006180618061806180AD
:100FC00061806180618073807F806D8060006000DF
:100FD0006000600000000018300000000000000009
:100FE000000000000000000000000070D818601829
:100FF000D870000000000000000000000000007039
:10100000D818306040F80000000000000000000028
:10101000000000000000000000000C000C000C00AC
:101020000C00FFC0FFC00C000C000C00FFC0FFC094
:101030000000000000000000000000384444443874
:10104000000000000000000000000000FFC0FFC022
:101050000000000000000000000000000000000090
:101060000000000000000000000000000000000080
:10107000000000000000000000000F803060401001
:101080004F90884888488F88890888884850401041
:1010900030600F8000000000000000000000000031
:1010A000000000000000F8F8000000000000000050
:1010B00000000000000000000000000000007FC0F1
:1010C0007FC000C000C000C00000000000000000A1
:1010D0000000000000000000000000000000000010
:1010E0000000000000000CC019803300660066009C
:1010F000330019800CC00000000000000000000058
:1011000000000078CC0C7CCCCC7C000000000000FF
:10111000000000000000000000000F803060401060
:101120004790884890089008900888484790401059
:1011300030600F800000000000000000000000CCC4
:10114000CC000000000000000000000000000000D3
:101150000000000000001E003F00330030001800B7
:101160003C0066006300318019800F000600030018
:10117000630073003F001E0000000030303030304C
:1011800030300000003030303030303000000000AF
:101190000000C0C061806180330033001E00FFC0CA
:1011A000FFC00C00FFC0FFC00C000C0000000000DE
:1011B000000000000000000000000000000000002F
:1011C0005D007F006300630063007F005D0000003E
:1011D000000000000000000000000000000000000F
:1011E00000001E003F007180600060006000FC0095
:1011F000FC00300020007800FF8087000000000025
:1012000000000000000000000000020002000200D8
:101210001E003F007780650064006C0069803B80A1
:101220003F001E0010001000100010000000000021
:10123000000030300030303030303030303030303E
:10124000000000000000000000000000000000009E
:101250000000000071250108D93C0108E1470108A0
:1012600039450108000000000000000014140101CD
:1012700078120008100A0D0020007E008412000879
:10128000000000000505010010220008060601000C
:10129000FC21000806060100E82100080A0A0200F5
:1012A000C02100080A0A020098210008101002005C
:1012B000702100080C0C0200482100080303010003
:1012C000342100080606010020210008060601005E
:1012D0000C21000807070100F82000080B0B020092
:1012E000D020000805050100BC200008060601000A
:1012F000A82000080505010094200008050501004C
:10130000802000080A0A0200582000080A0A020089
:10131000302000080A0A0200082000080A0A020019
:10132000E01F00080A0A0200B81F00080A0A0200AB
:10133000901F00080A0A0200681F00080A0A02003B
:10134000401F00080A0A0200181F00080A0A0200CB
:10135000F01E000805050100DC1E0008050501005F
:10136000C81E00080B0B0200A01E00080B0B020099
:10137000781E00080B0B0200501E00080A0A02002B
:10138000281E000812120300EC1D00080B0B0200BF
:10139000C41D00080C0C02009C1D00080D0D02006D
:1013A000741D00080D0D02004C1D00080C0C0200FD
:1013B000241D00080B0B0200FC1C00080E0E02008E
:1013C000D41C00080D0D0200AC1C00080404010030
:1013D000981C000809090200701C00080C0C02008F
:1013E000481C00080A0A0200201C00080F0F020017
:1013F000F81B00080D0D0200D01B00080E0E0200A5
:10140000A81B00080C0C0200801B00080E0E020036
:10141000581B00080D0D0200301B00080C0C0200C8
:10142000081B00080C0C0200E01A00080D0D020059
:10143000B81A00080B0B0200901A000811110300E3
:10144000541A00080B0B02002C1A00080C0C0200A6
:10145000041A00080B0B0200DC1900080505010046
:10146000C819000805050100B419000805050100A8
:10147000A0190008070701008C1900080A0A0200D9
:101480006419000806060100501900080A0A020043
:10149000281900080A0A02000019000809090200B8
:1014A000D81800080A0A0200B01800080A0A020048
:1014B0008818000805050100741800080A0A0200CF
:1014C0004C1800080A0A020024180008040401004D
:1014D0001018000804040100FC17000809090200A4
:1014E000D417000804040100C01700080E0E020003
:1014F000981700080A0A0200701700080A0A02007A
:10150000481700080A0A0200201700080A0A020009
:10151000F816000806060100E41600080909020092
:10152000BC16000805050100A81600080A0A0200FA
:101530008016000809090200581600080D0D020067
:1015400030160008080801001C16000809090200EE
:10155000F415000808080100E0150008060601005F
:10156000CC15000806060100B815000806060100A3
:10157000A41500080B0B02007C15000800000000F9
:101580000000000000000000000000007000FC40AF
:101590008FC0038000000000000000000000000079
:1015A00000000000000000E0F030303030381C1C3B
:1015B000383030303030F0E0000000303030303043
:1015C0003030303030303030303030300000001CBF
:1015D0003C3030303070E0E07030303030303C1C27
:1015E000000000000000FFFF070E1C3870E0FFFF46
:1015F00000000000000000000000000000000000EB
:10160000C180C18063006300330036001E001E00ED
:101610000C000C000C0018007800700000000000A6
:101620000000C366663C18183C6666C300000000F4
:10163000000000000000000000000000C218C718F1
:10164000C71865306DB06DB028A038E038E018C01C
:10165000000000000000000000000000000000008A
:1016600000000000C180C180630063006300360099
:1016700036001C001C0008000000000000000000F4
:101680000000000000000000000000006180618098
:101690006180618061806180618063807F803D8046
:1016A0000000000000000000000000606060F0F03A
:1016B000606060606060707000000000000000000A
:1016C00000000000000000003E007F00630070008A
:1016D0003C000E00070063007F003E000000000099
:1016E000000000000000000000006C7C7060606082
:1016F000606060600000000000000000000000006A
:10170000000000001D803F807380618061806180E7
:10171000618073803F801D80018001800180018095
:101720000000000000000000000000006E007F00CC
:101730007380618061806180618073807F006E0052
:101740006000600060006000000000000000000019
:10175000000000001E003F00738061806180618096
:10176000618073803F001E00000000000000000048
:101770000000000000000000000000006F007F80FB
:101780007180618061806180618061806180618041
:101790000000000000000000000000000000000049
:1017A000000000006E707EF8739863186318631869
:1017B000631863186318631800000000000000003D
:1017C0000000006060606060606060606060606039
:1017D00000000000000000000000600060006000E9
:1017E000638067006E0078007C006C006600660015
:1017F0006300638000000000000000000000006043
:101800006000606060606060606060606060E0C058
:101810000000006060006060606060606060606048
:101820000000000000000000000060006000600098
:101830006F007F80718061806180618061806180E4
:1018400061806180000000000000000000000000D6
:1018500000000000000000001D803F807380618058
:1018600061806180618073803F801D800180638022
:101870007F003E00000000387860F8F8606060602B
:1018800060606060000000000000000000000000D8
:10189000000000001E003F00730061807F807F8099
:1018A000600071803F001E0000000000000000008A
:1018B0000000000000000180018001801D803F8049
:1018C0007380618061806180618073803F801D8052
:1018D0000000000000000000000000000000000008
:1018E000000000001E003F00730060006000600008
:1018F000600073003F001E000000000000000000B8
:101900000000000000006000600060006E007F00CA
:101910007380618061806180618073807F006E0070
:1019200000000000000000000000000000000000B7
:10193000000000001F003F80618007803F807980A9
:10194000618063807F803D80000000000000000017
:1019500000000060300000000000000000000000F7
:101960000000000000000000000000000000000077
:101970000000000000000000000000000000000067
:101980000000000000000000FFC0FFC000000010C9
:1019900038286C6C44C60000000000000000000005
:1019A000000000F0F0303030303030303030303047
:1019B0003030F0F0000000C0C0606060303030189F
:1019C00018180808000000000000007878606060C7
:1019D0006060606060606060606078780000000057
:1019E00000007FC07FC001800300070006000C00DC
:1019F0001800380030006000FFC0FFC00000000089
:101A000000000000000000000000E070606030C0D6
:101A100039C019800F000F000600060006000600FE
:101A200006000600000000000000000000000000AA
:101A3000000071C031801B001B000E000E000E0064
:101A40001B001B003B80318060C0E0E00000000014
:101A500000000000000000000000000000C1C18084
:101A6000C1C18063630063630063630063630066F6
:101A700023003636003636003636003636001C1C5B
:101A8000001C1C000000000000000000000000001E
:101A9000000000000000C060C06060C060C060C0A6
:101AA0003180318031801B001B001B000E000E00B6
:101AB0000000000000000000000000000000603096
:101AC0006030603060306030603060306030603096
:101AD000603070703FE00F800000000000000000E8
:101AE0000000000000007FE07FE006000600060026
:101AF00006000600060006000600060006000600B6
:101B000000000000000000000000000000000F8046
:101B10003FC070E0606060003C001F8003C0006058
:101B2000606070E03FC01F80000000000000000007
:101B30000000000000007FC07FE0607060306070D7
:101B40007FE07FC0618061C060E06060607060388D
:101B500000000000000000000000000000000FC0B6
:101B60001FE038703038601860186018601860180E
:101B700031B038E01FE00FB80000000000000000A6
:101B80000000000000007F807FC060E06060606057
:101B900060E07FC07F8060006000600060006000E7
:101BA000000000000000000000000000000007C06E
:101BB0001FE03870303060186018601860186018C6
:101BC000303038701FE00780000000000000000087
:101BD00000000000000060307030783078306C30E9
:101BE00066306730633061B060F060F06070603024
:101BF0000000000000000000000000000000701C59
:101C0000783C783C783C6C6C6C6C6C6C644C66CC4E
:101C100066CC66CC638C638C000000000000000082
:101C200000000000000060006000600060006000D4
:101C30006000600060006000600060007F807F8066
:101C4000000000000000000000000000000060E054
:101C500061C0638067006E007C007E007700638057
:101C6000618061C060E06070000000000000000062
:101C70000000000000000300030003000300030055
:101C80000300030003000300630063007E003C00C8
:101C90000000000000000000000000606060606064
:101CA0006060606060606060000000000000000034
:101CB0000000603060306030603060307FF07FF076
:101CC00060306030603060306030603000000000B4
:101CD0000000000000000000000007C01FF03830C6
:101CE00030186000600061F861F86018301838380A
:101CF0001FF007C00000000000000000000000000E
:101D000000007FC07FC06000600060007F807F8037
:101D10006000600060006000600060000000000083
:101D2000000000000000000000007FE07FE0600095
:101D3000600060007FC07FC06000600060006000E5
:101D40007FE07FE0000000000000000000000000D5
:101D500000007F807FC060E0607060306030603085
:101D600060306030607060E07FC07F800000000005
:101D7000000000000000000000000F801FE038702D
:101D8000303060006000600060006000303038601B
:101D90001FE00780000000000000000000000000BD
:101DA00000007F807FC06060606060607FC07FC037
:101DB00060606060606060E07FC07F800000000065
:101DC000000000000000000000000E000E001B00DC
:101DD0001B001B00318031803F807FC060C060C02D
:101DE000C060C060000000000000000000000000B3
:101DF000000000000001F80007FE000E070018EFC9
:101E00008031FDC03338C06718C06618C06610C086
:101E100066318067338073FF0033BC003801C01E19
:101E200003800FFF0003FC000000000000001E0004
:101E30003F00738061800180030006000C001800E1
:101E4000180000001800180000000000000000004A
:101E500000000000000000000000400070003E0094
:101E6000078000C007803E007000400000000000B6
:101E70000000000000000000000000000000000062
:101E8000000000007FC07FC0000000007FC07FC056
:101E90000000000000000000000000000000000042
:101EA00000000000000000000000004001C00F80A2
:101EB0003C0060003C000F8001C0004000000000BA
:101EC00000000000000000000000000000003030B2
:101ED0000000000000003030102000000000000072
:101EE0000000303000000000000030300000000032
:101EF0000000000000001E003F00618061806180E2
:101F000063803F801D800180018063003F001E00D0
:101F100000000000000000000000000000001E00A3
:101F20003F006180618061803F003F00618061808F
:101F3000618061803F001E00000000000000000082
:101F40000000000000007F807F8001000300060089
:101F500006000C000C000C000C0018001800180003
:101F600000000000000000000000000000001E0053
:101F70003F003180600060006E007F0071806180F2
:101F8000618031803F001E00000000000000000062
:101F90000000000000003F003F00300060006E00C5
:101FA0007F00618001800180618061803F001E00B0
:101FB000000000000000000000000000000006001B
:101FC0000E000E001E00360036006600C600FF80C0
:101FD000FF80060006000600000000000000000070
:101FE0000000000000001C003F006300030003002D
:101FF0000E000F0001800180618061803F001E00A3
:1020000000000000000000000000000000001E00B2
:102010003F007380618001800180030006000C0096
:10202000180030007F807F8000000000000000006A
:1020300000000000000006000E001E003600260012
:102040000600060006000600060006000600060060
:1020500000000000000000000000000000001E0062
:102060003F007380618061806180618061806180F8
:10207000618073803F001E0000000000000000002F
:102080000000000808181818303030606060C0C0C8
:102090000000000000000000000000000000000040
:1020A00000003030000000000000000000000000D0
:1020B0000000F8F800000000000000000000000030
:1020C0000000000000000000000030301020000080
:1020D00000000000000000000000060006000600EE
:1020E00006007FE07FE00600060006000600000014
:1020F0000000000000000000000000107C102828F4
:10210000000000000000000000000000000000804F
:102110004020303018181818181818303020408017
:102120000000000408103030606060606060603063
:1021300030100804000000C0C0C0C0C00000000093
:1021400000000000000000000000000000000F0080
:102150001F80198019801B000E003E0036606360EE
:1021600061C071C03FE01E300000000000000000B0
:102170000000000000003C306660666066C066C01B
:1021800067C03DBC01E603660366066606660C3C56
:1021900000000000000000000000000004001F001C
:1021A0003F8064C0640074003E000F8007C004C01C
:1021B00064C075C03F801F000400040000000000E0
:1021C0000000000000000CC00CC01980FFC0FFC060
:1021D00019803B803300FFC0FFC0330066006600FB
:1021E00000000000000000000000006C6C6C6C6CD3
:1021F00000000000000000000000000000000030AF
:1022000030303030303030303000303000000000BE
:1022100000000000000000000000000000000000BE
:10222000000000002DE9F04F0FF2A41CA1B0DCE982
:102230000089CDE900892A9DDFF8DC9B0491002408
:102240008DF843500D944FF0FF38824616461F46D6
:102250000FE0B3462C461BF8011B0498D04700281A
:10226000049000F0A2800D98401C641E0D90F2D1E5
:1022700076193078252808D100210022079108928C
:1022800009910A920B910C920DE06A464146304644
:1022900000F0DAFF050001D10D98A1E0D9D50125A4
:1022A000E6E741F0010116F8010F2028F9D02328B4
:1022B0000CD02B2804D02D2805D0302809D076E06A
:1022C00041F00201EFE741F00401ECE741F00801C1
:1022D000E9E741F01001E6E70F9209E00F98484561
:1022E00005DA00EB800402EB4402303A0F92761CD0
:1022F0003278A2F130000A28F0D330782E2818BFA7
:10230000CDF8388022D116F8010F2A2807D1386875
:102310003860761C50F8042B38600E9216E02D2899
:102320000CBF761C002000220E920AE040B90E9AE3
:102330004A4505DA02EB820403EB4403303B0E937B
:10234000761C3378A3F130020A2AEFD3ADF840109F
:1023500021A0317800F082FF08B116F8010B8DF84A
:1023600042009DF84200682804D1307868280AD1DC
:10237000622105E06C2804BF30786C2803D17121FC
:102380008DF84210761C12A806903A4616F8013BCA
:1023900002A9504600F064F838B912AA02A95046C2
:1023A00000F0C8F900287FF564AF404618E02A28FD
:1023B00092D13A683A6052F8040B3A6000280F90C4
:1023C00003D540420F9041F00401761C95E70000D0
:1023D0000000000000000000686A6C747A4C000085
:1023E00021B0BDE8F08F622820D0682811D06A287B
:1023F00003D06C2827D0712825D10868C01D20F093
:1024000007000860D0E9002308300860194610462C
:102410007047002A0A680A60106803D0121D0A601B
:1024200000B217E0121D0A6080B217E0002A0A68A5
:102430000A60106803D0121D0A6040B20AE0121D43
:102440000A60C0B20AE0002A0A680A60106803D075
:10245000121D0A60C1177047121D0A6000217047E3
:102460007CB50D4611461C462E69B4F1250200F0DC
:102470004F811C3A00F08480121F022A40F28080B3
:102480000E3A00F00981521F59D0093A78D0921EB5
:1024900016D0521E35D0521E022A71D9121F30D0CA
:1024A000521F00F09880521E49D0521E00F0E28068
:1024B000D21E00F0FF80921E41D0D21E3FD02DE1EF
:1024C00095F83A406C2C09D06869421C6A610A6828
:1024D0000A6052F8043B0A60335429E10A680A6032
:1024E00052F8043B0A600093002201924FF0FF3340
:1024F0002B636A46294600F098F9002840F11881BC
:1025000003E195F83A000122FFF76DFFC5E90001EC
:10251000002904D56869411C69612D220DE0288FCE
:10252000810704D56869411C69612B2205E0C00759
:1025300021D56869411C6961202232541BE095F85D
:102540003A000022FFF74FFFC5E9000195F8380077
:10255000010710D5D5E90023002B08BF002A0AD0B7
:1025600044F02000782806D1686930213154401C9D
:10257000421C6A613454214668693044E86087E04F
:102580000868C01D20F007000860D0E9002308306B
:102590000860C5E90023D5E90001C80F04D06869C7
:1025A000411C69612D220DE0288F810704D56869DF
:1025B000411C69612B2205E0C00704D56869411CF4
:1025C00069612022325468693044E8602146284617
:1025D00000F036FAACE005F13A02507820B14FF045
:1025E000FF340FF6043074E01078622808D06828B1
:1025F00024D06A2812D06C282ED071280ED02BE05F
:102600000A680A6052F8040B0A6020B94FF0FF34E0
:102610000FF6EC205DE0E96A017089E00A680A6063
:1026200052F8040B0A6020B94FF0FF340FF6D020A7
:102630004FE0EA6AD317C0E9002379E00A680A602C
:1026400052F8040B0A6020B94FF0FF340FF6B020A7
:102650003FE0E96A01806BE00A680A6052F8040B07
:102660000A6020B94FF0FF340FF6942031E0E96A98
:1026700001605DE00A680A6052F8040B0A600021FC
:1026800020F0000221F0FF33C5E90023EE6078213D
:10269000284600F02DF94BE06C2285F83A200B68B3
:1026A0000B6053F8042B0B6052BB4FF0FF340FF656
:1026B00084200EE095F83A206C2AF0D00868086073
:1026C00050F8044B0860EC603CB94FF0FF340FF653
:1026D000482000F0EBFD201A76BD2E6B002E04D5AD
:1026E000204600F003FE044608E032460021204662
:1026F00000F026FE002814BF041B3446AC6117E02E
:10270000294600F092F8002812D54FF0FF3076BD30
:102710006869411C69612522325409E06969481CD5
:10272000686125227254210002D0431C6B6134542D
:10273000002076BD2DE9F0410E4605469046726BAD
:102740007069316AB46A121AB069521A716A121A3F
:10275000F069521A121A96F83800141B41070DD46A
:10276000002C0BDD2746B0682021A8470028B06068
:1027700057D0F06A401C7F1EF062F4D17369424664
:102780003146284600F098FC00284AD1376A002FCD
:102790000ADDB0683021A8470028B06041D0F06A57
:1027A000401C7F1EF062F4D1B369F26831462846BE
:1027B00000F082FCA8BB776A002F09DDB0683021E9
:1027C000A847B06068B3F06A401C7F1EF062F5D184
:1027D000F068B169F36942183146284600F06CFC94
:1027E000F8B9B76A002F09DDB0683021A847B0609A
:1027F000B8B1F06A401C7F1EF062F5D196F838003F
:1028000041070BD5002C09DDB0682021A847B06036
:1028100038B1F06A401C641EF062F5D10020BDE8BA
:10282000F0814FF0FF30BDE8F0812DE9F8470D460B
:10283000A3B02F6B002F0646904648BF6FF00047AD
:102840000FF60C1400F0A8FDD4E90023696B4018C2
:10285000CDE90123812828BF4FF0FF3042D2002468
:10286000002F33DDD8F8001001AA684600F0EEFC16
:102870008146B9F1000F38D4D8F8000010B9B9F189
:10288000010932D44F4521DB6869484481280AD3C5
:102890000021696303AA29463046FFF74BFF040075
:1028A00014D40020686103ABD5F814A04A466946E9
:1028B00003EB0A0000F07AFDCA44C5F814A058F8EA
:1028C000040B002818BFA7EB0907C9D14CB903AA0C
:1028D00029463046FFF72EFF044614B900206861F0
:1028E0006863204624B0BDE8F0874FF0FF34F8E776
:1028F0002DE9FC4307466F293E6908BF082405D02F
:1029000041F02000782814BF0A2410243C25D7E980
:102910000023642918BF69299046994605D1002BE8
:1029200003D5D8F1000869EB4909B9F1000F08BFD8
:10293000B8F1000F1FD1386BE8B9082C4CD197F8CB
:102940003800010748D530203B2586F83B0043E09E
:1029500000280ED597F8380000F01400102808D190
:102960007B6B7969386A5B1A1B1A9A1A002AC8BFEE
:102970003A62BDE8F3838DF800104046494622468E
:10298000E31700F01FFD3032D0B26D1E3A280195DA
:1029900004DB9DF80000A0F151018A1872554046F1
:1029A00049462246E31700F00DFD80465FEA010923
:1029B00008BFB8F1000F03D0F86871198842DCD362
:1029C000082C09D197F83800010705D5705D30282B
:1029D00002D06D1E30207055C5F13C02BA617119EC
:1029E000F960386B8242B3DA821A3A624FF6EF70BE
:1029F000398F01403987BDE8F3832DE9D04306467E
:102A00000F4614464FF00008DFF8109412E0E0077C
:102A100007D542464B463046394600F057FD06463C
:102A20000F464046494642464B4600F04FFD641073
:102A300080468946002CEAD130463946BDE8D0832D
:102A40002DE9F84F05468A464AF020048EB0D5E9B4
:102A50000089612C02AE09D0286B002848BF0620EF
:102A600003D408BF672C01D101202863D5E90001F8
:102A70004A005215521C0DD10B030BD0AAF1610173
:102A800003201A29A86102D20FF2CC6110E00FF2E4
:102A9000CC610DE04A005215521C0ED10B030CD133
:102AA000AAF1610103201A29A86116D30FF2B461BB
:102AB000E868032200F07AFCC0E1CDE90C01DDE911
:102AC0000C2323F00043B3F5801F0DD20027002B09
:102AD00008BF002A019703D111E00FF28461E7E7F4
:102AE00001AA00F0C5FD0AE0CD48CE4900EB135025
:102AF000DDE90C2301900B40CB4910461943C5E991
:102B00000001612C0DD1E86830210170821CBAF1FE
:102B1000610FEA600CBF7821582141706869801C00
:102B20006861D5E90001CDE90C01DDE90C2333F042
:102B3000004104BF0028002300F04881612C40F0D0
:102B4000A080286B494600284CBF4FF0210B00F1B4
:102B5000010B404600220023DDE90C8900F0C0FD96
:102B600001990BF1010738BF89F00049091F002FB7
:102B700001918DF808200DF1090040F33581A94934
:102B800000910646404649460022002300F0C0FD61
:102B900080F029814800400D00F11C0211D0002A6C
:102BA0000FDD40F2FF739A4205DBA04909F00040B7
:102BB0000143002011E0009B194041EA02514046C8
:102BC0000BE028F0000039F0004108BF00280FBFDB
:102BD00049461C22494600F0B3FD8046894600F074
:102BE0004DFEFF1F002F044609DD00F065FE024682
:102BF0000B464046494600F071FE80468946F01D6E
:102C0000072104E004F00F0200F8012D2411002C2C
:102C100001DD491EF6D5491E5CBF002200F8012DDA
:102C2000F9D5DCE00020194602AA0A4400E05B1E48
:102C300012F80149491E8442F9D00F2804D10DF140
:102C40000900425C521C4254002904D50198001D21
:102C500002AE5B1C0190581E0CD43118AAF13A0444
:102C60000A783032D7B23A2FA8BFA218401E01F816
:102C70000129F5D5286B002840F1A780591E29634A
:102C8000A3E001996A4A47F29750414391FBF2F25F
:102C9000019229F00046D2F1070204DD4046314698
:102CA000FFF7ABFE0AE0524200206249FFF7A5FEA3
:102CB00002460B464046314600F082FE8046662CB6
:102CC000286B06BF019F0A3706273F18142FC8BF7D
:102CD000142730208DF8080089460DF1090000E026
:102CE0003046002F34DD06464046494600F08CFF52
:102CF00001460A4606F1080304200A26B2FBF6F64E
:102D000006EB860EA2EB4E02303203F8012C0A22AB
:102D1000B6FBF2F202EB820EA6EB4E063036401EF8
:102D200003F8026DE9D1083F002F03F10806D7DD53
:102D3000084600F07DFF02460B464046494600F03B
:102D4000CDFD00223C4B00F0C1FB80468946CBE71D
:102D50000DF10901401A0DF1090604E00199491E1F
:102D6000401E0191761C31783029F7D0662C02D1B3
:102D70000199491C03E0652C0CBF012100212B6B3C
:102D8000CB189842B8BF431E002B1ED4834204DAEE
:102D9000F05C3528A8BF392000DA30201946721EB1
:102DA00002EB010800E05B1E18F80199491E8145FD
:102DB000F9D0392802D1705C401C7054002904D528
:102DC0000198401C16465B1C0190019800B20090CF
:102DD0001BB232465146284600F034F82EE0C61D9C
:102DE000002F3FF7CFAE30460DF10901401A0346E0
:102DF0005845C8BF5B46002B0DF109063FF53AAFB9
:102E00008342BFF60FAF0DF10900C15C07297FF7C0
:102E100009AF0F2007E70000CBCCCC0C000024400A
:102E200002FCFFFFFFFF0F800000E03F0000F07F8B
:102E3000A08601000000F03F84D797410FB0BDE8A5
:102E4000F08F00002DE9F84783B006468A46174602
:102E5000984600F0FDF9B8F1000F406A356B90F824
:102E6000009002DC4FF00108BFA74AF02000BDF936
:102E70003040662808BF641C15D0672840F0848065
:102E800014F1040FC0F28680AC4280F2838096F881
:102E90003800641C010702D4A845B8BF454620B2DB
:102EA0002D1A48BF00250FFA84FAF068B169BAF10B
:102EB000000F25DC4A1C30234354002D03DC96F818
:102EC0003800010703D5F06800F80290521C15EB9A
:102ED0000A0FB8BF6C4220B2441941424445B8BF02
:102EE000A046B26171620FFA88F5F561F068B369C6
:102EF0002A463946184400F059FA641BB462C4E00B
:102F000022B29045084417DA4246394600F04EFA9C
:102F1000B0694044B061AAEB0801002D716203DC86
:102F200096F838100A0705D5F16801F80090F069A5
:102F3000401CF061B562A8E0394600F037FAB0698C
:102F4000002D5044A8EB040803DC96F838100A075B
:102F500003D5F16801F80090401CB0610FFA88F0C9
:102F60008542F368B069B8BFA8460FFA88F207EB4C
:102F70000A01184400F01AFAB1690FFA88F0014406
:102F8000B161281A706280E0BAF1610F14D14FF07C
:102F9000700A16E0A84504DA96F838100A0758BFF8
:102FA00045466D1E48BF0025BAF1670F14BF4FF0AC
:102FB000450A4FF0650A04E0BAF1410F08BF4FF02F
:102FC000500AB169F368481CB061002D17F8012B55
:102FD0005A5403DC96F838100A071BD5F168431CD5
:102FE000B36101F80090002D14DDA8F101080FFA7B
:102FF00088F039468542F768B8BFA8460FFA88F2CC
:10300000F81800F0D3F9B0690FFA88F108446D1A86
:10301000B0617562F068B1690844002C80F800A0C6
:1030200003D42B224270811C03E02D2141706442A5
:10303000811C00206A460AE023460A2493FBF4F42C
:1030400004EB8405A3EB450302F8013B401C24B2CA
:10305000002CF1DC012806DC4AF02002652A04BFBE
:10306000302201F8012B48B9302001F8010B07E0AC
:10307000401E1DF80030303301F8013B0028F7DC1A
:10308000F268B0691044091AF16196F8380000F04E
:10309000140010280DD17269B169706A8A18F1693B
:1030A0008218B06A8A188218706B8242BCBF821A7A
:1030B000326204B0BDE8F087F8B505460E46174603
:1030C0001C46002074B117F8011BB068A847B06017
:1030D00030B1F06A401CF0620020641EF3D1F2BDF2
:1030E0004FF0FF30F2BD00007072696E74665F735E
:1030F0003A20256E20646973616C6C6F776564009B
:103100007072696E74663A2062616420256E206177
:103110007267756D656E74007072696E74665F7348
:103120003A2062616420257320617267756D656E57
:10313000740000007072696E74665F733A20626199
:103140006420256C7320617267756D656E74000074
:1031500000000000000000006E616E004E414E0055
:10316000696E6600494E46003000F0B402461068B1
:1031700095681318506803EB5004C0071DD54D44E3
:103180001BE013F8017B05F8017B491EF9D1A0B1C2
:10319000B60813F8011B06F00306032E08BF13F848
:1031A000016B01EB06214942801C294405D011F82E
:1031B000016B05F8016B401EF9D1A3420ED013F844
:1031C000016B16F0030104BF13F8011BC91C300981
:1031D0000F28DAD113F8010B0F30D6E7F0BC02F15B
:1031E0000C0070471B48704770B45368D418042B08
:1031F00009DA41B1057804F8015B10F8016B16B1EA
:103200005B1C491EF3E7536070BC704738B5144629
:103210001D4661B1FFF7E8FF61686A6B2046904781
:103220006FF00102811A02D0491E01D001E003E0D3
:1032300005E00021616032BD6FF0010032BD4FF04A
:10324000FF3032BDDA6B1047024BDFE7014BF9E785
:1032500001487047C800002090000020C9B20278E1
:103260008A421AB11CBF10F8012FF9E718BF0020DD
:10327000704730B4002513E050F8042BD30744BF47
:10328000A9F101039A18091F042942F8045BFAD234
:1032900013468C0744BF15809B1CC90748BF1D708F
:1032A00050F8041B0029E7D130BC704780B500B945
:1032B00006A005490B681BB122220021984701E0B6
:1032C00000F0C3FC222002BDE02D0020636F6E736E
:1032D000747261696E742068616E646C65723A2004
:1032E000626164206D6573736167650000F10103BD
:1032F000810704D010F8011B820781B1FAD102685E
:10330000A2F10131914311F0803104BF50F8042F34
:10331000F6E709BAB1FA81F100EBD100401CC01AFE
:103320007047B1F5807F02D34FF0FF3070470170D6
:10333000012070470078401E8041C043C00F704795
:10334000C9B2830706D0521E22D310F8013B99421E
:10335000F7D11FE0083A13D302F1040241EA012138
:1033600041EA014150F8043B121F21BF4B40A3F139
:10337000013C2CEA030C1CF0803FF3D0C9B2001FC3
:10338000083210F8013B521E28BF91EA030FF8D80B
:1033900018BF0120401E704780B5FFF723FF006C67
:1033A00002BD0268531C0360117070474AB10000EF
:1033B00011F8013B521E00F8013B1CBF11F8013B04
:1033C000F8E77047D3BBD9B1B2F5803F5BD2022A90
:1033D0001ED98C46B1FBF2F102FB11C31B0443EA78
:1033E0001043B3FBF2FC02FB1C3380B240EA034300
:1033F000B3FBF2F002FB103240EA0C4000237047AE
:10340000022A05D98446B0FBF2F002FB10C27047D5
:103410004AB105D100F0010249085FEA3000704767
:1034200000220023704700F013BC0B0002000021B3
:1034300000207047F7D3002200237047904271EBC1
:10344000030CF2D370B5B1FA81F4B3FA83F52C1BF7
:10345000A340C4F1200532FA05F63343A2405FF0E1
:103460000046E64002E05B085FEA3202841A71EB34
:10347000030524BF204629467641F4D302000B0001
:103480003000002170BD70B5B1FA81F4B2FA82F556
:10349000C4F120046419B4F12006DAD3B2405FF01D
:1034A0000044F440002502E052085FEA3303C61AE4
:1034B00071EB020E24BF3046714664416D41F3D377
:1034C00002000B002000290070BD0000B0B581EAA9
:1034D000030C0CF0004C40F2FF7515EA11541DBFAF
:1034E00015EA1357AC42AF4239E0E41923EA4553D9
:1034F00043F48013C90241F0004141EA505EC70223
:103500001100A7FB020200284FF00000EEFB012093
:103510004FF00001E3FB072118BF42F00102401801
:1035200000214941E3FB0E01A4F580640F0302D2A0
:1035300052004041494154F101046CDD470872F1E9
:10354000004250F1000051EB0451A1F580115CBF25
:1035500041EA0C01B0BD4CEA05510020B0BD05EABE
:103560001357AC4214BFAF4241E050EA410E1CBFBA
:1035700052EA430E02E061460020B0BD24423C44C2
:103580001BD15FEA070EF6D0090302BF01460020F7
:10359000AEF1140EB1FA81F7AEEB070401FA07FEA3
:1035A0000C37C7F1200100FA07F7C8404EEA000EB9
:1035B00023EA455343F48013A2E733F00043B3FA00
:1035C00083F704BFB2FA82FE77440B3FE41BB7F1E6
:1035D000200E2FBF02FA0EF3BB40C7F1200E22FAD5
:1035E0000EFE38BF43EA0E03BA40641C82E750EA7D
:1035F000410E14BF52EA430E6FF000014FF4001762
:1036000017EB430F8ABF194617EB410FB5E74CEA9A
:1036100005510020B0BDD4F10104B4F120070FDA48
:10362000C4F12007520828BF42F0010210FA07F542
:1036300001FA07F7E1BF2A43E0403843E1400FE0D9
:10364000352C98DCC7F1200452EA400220FA07F238
:1036500018BF42F0010231FA07F0A1400A430021ED
:1036600072F1004250F1000051EB0C01B0BD0000BE
:1036700010B5144600F002F8226010BDC1F30A53E1
:1036800043B14A0012F5001F28D2A3F2FE32A1EB8B
:103690000251704750EA410C20D001F0004C31EA51
:1036A0000C01B1FA81F204BFB0FA80F3D2180B3AE0
:1036B000B2F120032CBF00FA03F1914041EA0C0162
:1036C0003EBFC2F1200C20FA0CF319439040524245
:1036D00040F2FD33D21A01EB0351704700227047CC
:1036E0004FF4001C1CEB410F94BF1CEB430F09E08F
:1036F00041EA030C50EA4C0C52EA0C0C03D29942FA
:1037000008BF9042704714BF8B428242704700004E
:103710004FF4001C1CEB410F94BF1CEB430F09E05E
:1037200041EA030C50EA4C0C52EA0C0C03D28B42D7
:1037300008BF8242704714BF994290427047000010
:10374000124254D440F2FF7C1CEA11530FD063455F
:1037500031D09B1863453CBF01EB0251704701F02B
:10376000004141EA0C510020AFF30080704750EA5D
:10377000410320D001F0004C91EA0C011CD0B1FAB9
:1037800081F30B3B9A420DD9D21A994051EA0C01B0
:10379000C3F1200C20FA0CFC61449840531C40F209
:1037A000FF7CD7E7914041EA0C01C2F1200C20FADE
:1037B0000CF3194390407047B0FA80F31533202B77
:1037C000E0D3202AEED3203A203B9A4209D9D21ADC
:1037D00000FA03F141EA0C010020531C40F2FF7C87
:1037E000B8E700FA02F141EA0C01002070475242AA
:1037F00040F2FF7C1CEA11530DD06345DBD0B2EBE5
:10380000030C3CBFA1EB025170470CF1010221EA0D
:10381000035141F4801150EA410CCCD001F0004C2E
:10382000352A27DC30B481EA0C01B2F1200309DA31
:10383000C2F12003044601FA03F5D0402843D140E9
:103840009C400CE0C3F12002450020FA03F418BFAD
:1038500044F0010421FA03F091400C43002174F17B
:10386000004550F1000051EB0C01244230BC7FF4C4
:103870007BAF70476146002076E70000C1F30A5332
:1038800040F2FE329B1A14DDD3F120034FEAE172BD
:1038900008DDC90241EA505141F00040D84080188B
:1038A0005040704703F2E13010B1D24382F0004043
:1038B0007047002070470000C11768B14840401AA7
:1038C000B0FA80F29040D21CC907C2F5846241EA86
:1038D000025202EBD02140057047000070B44FF057
:1038E000004591EA030F40F1B5816B40841A71EBFA
:1038F000030603D2001BB141121973414FF4001C9F
:103900001CEB410F34BF7CEB430442E00C0DA4EBF5
:103910001356352E4FDC45EAC323DB0A45EAC121A5
:10392000C912B6F120050DDD63FA05F6EB4086EA13
:103930000305124218BF45F00105C01851F10001FE
:103940000CD213E062FA06F5F2405540F3415A40BA
:10395000B340F3405A408018594107D349085FEA01
:1039600030005FEA350528BF45F0010501F58011FB
:10397000420875F1004250F1000041EB04514E0045
:1039800016F5001F70BC38BF70470020090D0905EF
:1039900070471CEB410F10D252EA43060BD0BCEB30
:1039A000410F05D80C0DAB43661E342EB6DD02E088
:1039B000AB438018594170BC704770BC7047000021
:1039C000F0B540F2FF7581EA030C0CF0004C15EAEB
:1039D00011541DBF15EA1357AC42AF42E5E0BC419C
:1039E000C1F31301C3F31303801A994143F4801305
:1039F00004D2641E4000494180185941C90241EA7D
:103A00005051B1FBF3F603FB1611A2FB0675D7EB81
:103A1000C020A94102D2761E80185941C90241EA4C
:103A20005051B1FBF3FE03FB1E11A2FB0E75D7EB49
:103A3000C020A94103D2AEF1010E8018594189027C
:103A400041EA9051760546EA8E2EB1FBF3F603FB70
:103A50001611A2FB0675D7EB8020A94102D2761E73
:103A600080185941C90241EA50514EEA060EB1FB95
:103A7000F3F603FB1611A2FB0675D7EBC020A94194
:103A800002D2761E80185941C90241EA5051B1FB59
:103A9000F3F703FB1711A2FB0735D3EBC020A941B5
:103AA00067F100070CBF004247F0010766F3D52716
:103AB0004FEA1E31B80814F5806412DDBD0775F1B8
:103AC000004250EB0E5051EB045111F5801F5CBFCA
:103AD00041EA0C01F0BD4CF07F6141F0E041002073
:103AE000F0BDBD076D0840EA0E5041F48011D4F1DD
:103AF0000104B4F120060ADAC4F120060200E04015
:103B000001FA06F3E1401843B24015430EE0342CAD
:103B100013DCC6F1200445EA40056D0820FA06F2E0
:103B2000154321FA06F0A1400D43002175F1004232
:103B300050F1000051EB0C01F0BD00205FEA0C01D8
:103B4000F0BDCFB992185B41B3FA83F704BFB2FA64
:103B500082F6BF190B3FB7F120062FBF02FA06F31A
:103B6000BB40C7F1200622FA06F638BF3343BA40FD
:103B70001CB1E419641E33E77F4231F00041B1FA11
:103B800081F404BFB0FA80F6A4190B3CB4F120060E
:103B90002FBF00FA06F1A140C4F1200620FA06F674
:103BA00038BF3143A0403C1B1AE7AC421ABF05EABC
:103BB0001357AF4212E050EA41061CBF52EA4306D7
:103BC000BFE750EA4107304661461CBF41EA055154
:103BD000F0BD52EA430C08BFC143F0BD00204FF4D2
:103BE000001616EB410F98BF16EB430F08BF16EBFC
:103BF000410F24BFC14305E016EB430F0CBF6146E4
:103C00004CEA0551F0BD0000400D491840EA812002
:103C10000CD2490DA1F58061491C40F0004005DB44
:103C2000D1F11F0154BFC840C01770470020704732
:103C3000014648B1B0FA80F18840C91CC1F58461E1
:103C4000090501EBD02140057047012000F0B8B80C
:103C500070470000841A71EB030604D26E40001B0B
:103C6000B141121973414FF4001C1CEB410F34BFDA
:103C70007CEB430683E00C0DA4EB1356362E00F3C9
:103C80007C80012E45EAC32341DC43EA525312BF34
:103C9000D20292025B08240545EAC12141EA505153
:103CA000D2EBC020994125D407D1B0FA80F610FAA2
:103CB00006F162D00020203608E0B1FA81F6B1406A
:103CC000C6F1200220FA02F21143B0404FEAF47428
:103CD000B4EB465434F001064FEA74040AD8D6F522
:103CE0000016760D04F00044F04061FA06F25040F0
:103CF000F1404840C00A40EA415021F0004128BF4D
:103D00005FEA500550F1000044EBD12135E0DB0AB9
:103D100045EAC121C90AB6F120050EDD42EA024298
:103D2000120CC5F1200603FA06F6EB4042EA06053E
:103D30006D42984161F100010DE062FA06F5F24032
:103D4000554063FA06FC82EA0C02F3405A406D4289
:103D5000904161EB030111F4801F05D1641E6205DF
:103D600002D06D004041494121F48011430875F1B2
:103D7000004350F1000041EB045170BC70471CEB54
:103D8000410F15D223F0004352EA43060BD04FEA0D
:103D90004C0CBCEB410F04D80C0D661E342EB7DD65
:103DA000EBE7801A994150EA410608BF0021E4E799
:103DB00008BF1CEB430F28BF6FF00001DDE70000D8
:103DC00080B5AFF30080024A11001820ABBEFBE7BC
:103DD000260002002DE9F04F95B00C460B92AA4A3E
:103DE0000D9012680993106E1F9DDDF88C9000F005
:103DF0000DFD42691190002A40F0B3800346104641
:103E0000DB68129011A80793229BE318089300F037
:103E100011FD9D4B12981B6820B11A7C9A4C91079A
:103E200000F0D480186E00F0F1FC04460B9914A841
:103E3000B4F90620E3688A1AB4F904B040F8044DD6
:103E400003FB02F3089A1833CBEB020B03EB4B0393
:103E5000E318029300F0EEFC102D00F08780172D80
:103E600045DD1E9B002B40F3B984219BDDF82C908F
:103E7000A3F1040A1E9B129E03EB090BCDF80CB0B4
:103E8000DDF834B01AF1040F1FD0029FEFB1002EFD
:103E900059D0B0684A46099DD046446830462B4602
:103EA0000899A047089CDBF8103058F8040F1B68ED
:103EB0009847B368214627F8020B4A461B683046EC
:103EC00001349847013DEED1129E029B09F1010990
:103ED000079A13440293209B9A44039B9945D1D19E
:103EE00016B112A800F0A6FC15B0BDE8F08F082DA1
:103EF00075D0664BB9F1000F08BF99461E9B002B89
:103F000040F32F811C46229A229B520007989B0067
:103F1000209E069203930023029A2199022D00F01D
:103F20002781042D00F0FD81012D00F0378301333E
:103F3000314402449C42F1DCDDF848B0DE46BEF17B
:103F4000000FCED1D0E73D465646099CDBF8103035
:103F500056F8040F1B689847013C25F8020BF5D171
:103F6000B2E7104600F052FC119B49E7129D002D6C
:103F700000F026841E9B002BB3DD099B0024444FD8
:103F80005E00A046DDF81CB00396DDF87890029E36
:103F9000DDF880A0219C84B12146039A304666B1A9
:103FA0003B6898470B9B2846089903EB0802099B3E
:103FB00015B1AD686D68A847129D08F10108544419
:103FC0005E44C145E7DC002D8BD18DE71E9B0B9A2B
:103FD00000930899099B00F047FC236822E71E9B89
:103FE000002B40F30484219B099A013B0B9DDDF8D3
:103FF00048B00393029B5846CDF88C90A94603EB3A
:1040000042061E9B2B44239D0493039B591C1E4B6D
:104010001B681B7C002D48D013F003033AD0022B01
:104020001ED1BBF1000F63D0DDF80CA0DDF80880D5
:10403000099F089C1AF8013F21464A460134584618
:104040003BB155F823E0DBF80830A8F800E01B6826
:104050009847013F08F10208ECD1DDF848B0584616
:10406000029B09F10109079A1946039B1644114462
:10407000029120990B440393049B4B45C5D1002822
:104080007FF42FAF30E700BF24000020B8360108CE
:1040900044000020039A029B12F8011F55F82110DA
:1040A00023F8021BB342F7D1DAE713F0030300F061
:1040B0006583022BD4D1BBF1000F00F07783DDF8CC
:1040C0000CA0DDF80880099F089C1AF8013F2146E2
:1040D0004A460134584633B1DBF808E0A8F800300E
:1040E000DEF800309847013F08F10208EDD1B4E74F
:1040F0000399029B11F8012F12B155F822201A8062
:1041000002339E42F6D1AAE74246039B14F0010F08
:104110004FEA540403D019888AEA01011980013A50
:1041200003F10203F2D1039B03EB48030393B9F1BC
:10413000000F40F0C482DDF88CA00A9B11A8079AFA
:1041400001331C460A93029B1344209A02930C9B52
:1041500013440C9300F06EFB1E9B1A46A24200F320
:104160002882DDF848E0BEF1000F7FF4BAAEBBE66E
:104170000A93229BDDF848B0C3F104030292DA46A9
:10418000CB46DBB221910C93D6465746A34B219ADE
:104190001B6814781B7C069A03F003039440012BE0
:1041A000E4B200F09E807CD3022B67D1099B0A9A6F
:1041B0000393219BDDF830900593089B029D0493A7
:1041C0000B9B03EB020A039A039B9145C8BF5FFA5E
:1041D00082F9C9EB030309F1FF3903934FB35FFA87
:1041E00089F9049E09F1010805EB480814F0C00F95
:1041F00031464FEA941306F101065246384606D07E
:104200005BF823E0BB68A5F800E01B68984702351F
:10421000A4004545E4B2E9D1049B01334B44049327
:10422000039BD3B1059B4FF0040913F8014F05938D
:10423000C9E75FFA89F909F1010105EB4101A30022
:1042400014F0C00F4FEA9412DCB202D05BF82230B7
:104250002B800235A942F2D1DEE7129FBE46219A99
:1042600020990A9B0A44079901332192029A0A93E2
:104270000A4402921E9A9A4288DC60E6219ABA4663
:1042800020990A9B0A44079901332192029A0A93C2
:104290000A4402921E9A9A423FF776AFBB46DE4628
:1042A0004DE60C9B029E099DDDF884C0AB42C8BF61
:1042B000EBB2581EED1AB31EC0B206EB4001A209C4
:1042C000A4005BF82220E4B223F8022F9942F6D131
:1042D000013006EB4006002DC1D01CF8014F04232D
:1042E000E4E70C99029B09980A46219D8242C8BFC7
:1042F000C2B2511E801AC9B2013103EB4101A200C2
:1043000014F0C00FD4B203D01A8882F0FF021A80D2
:1043100002338B42F3D10028A1D015F8014F0422BB
:10432000E4E72191CA4622990A93DDF848B0C1F129
:104330000203DDF88490D9B25F461346069102333A
:10434000BE46CB460293354B029A1B68A2F1020887
:1043500003991B7C9BF8002003F003038A40012B88
:10436000D4B200F0CB80C0F09680022B40F0838066
:104370000B990A9B0B4419460593229B002B00F0D6
:10438000E18012F0F00F40F00282089B0BF1010671
:10439000DDF80880591C099B9BF80140013B012B6B
:1043A0004CDD023B002F00F0D18004935B088A1C97
:1043B00008F104090C935B00CDF83C800D460D9389
:1043C000D318CDF884B00E929B46DDF814801AE025
:1043D0005AF823E0BB6829F804EC1B68984714F0EE
:1043E0000F0409D05AF824304246691C384629F88F
:1043F000023CBB681B689847023509F1040916F8AE
:10440000014F5D450CD014F0F00F4FEA141329460C
:1044100042463846DCD1002CEED0E3E724000020F1
:104420000C9B0E980D995A1CDDF83C8001440498B1
:10443000DDF884B008EB8208A0EB43035BB12409EC
:1044400009D05AF82430A8F8003027B1BB683846A4
:10445000059A1B689847129FBE46209A0799934475
:10446000029A0A9B0A44013302921E9A0A939342CB
:10447000FFF669AF63E50A9BD9461E9901331A46D8
:104480000A93209B8A429944079B4344FFF657AF07
:10449000BB46DE4653E5229B002B50D02409099BE6
:1044A0000BF101025D1E5AF82430A8F80030DDF847
:1044B00008809BF80140012D18DD6E1008F10403FF
:1044C00005F0010590198446210904F00F04043316
:1044D0005AF821005AF8241023F8080C23F8061C77
:1044E00012F8014F6245EFD108EB8608002DB4D0D9
:1044F00024095AF82430A8F80030AEE7069B584645
:1045000009998B42C8BFCBB25A1EC91AD2B2013226
:1045100008EB4202230114F0C00FDCB205D0B8F85A
:10452000003083F0FF03A8F8003008F1020890453E
:10453000F0D1002991D010F8014F0223E1E7099D45
:104540005A46B8E7099B5E46089928E71A4604933D
:1045500008F104034FEA520E0EF1010C06EB0C00B9
:1045600014F0F00F4FEA141203D05AF8222023F867
:10457000042C14F00F0403D05AF8242023F8022C42
:1045800016F8014F0433B042EAD10231049B08EB24
:104590008C08A3EB4E0301EB4E014FE70A930B4649
:1045A000CA460292013321910C93229BC3F1080366
:1045B0000E93924B0B990A9A1B680A440C9C186E36
:1045C000049200F023F98D4B04F1FF3814F8012C0C
:1045D0001B688B491B7C8C5C03F00303229A1190AF
:1045E000022B44FA02F4DDF848B072D0032B1FD03E
:1045F000012B1DD00E98029E099DA842314628BF6E
:1046000028462D1A024604F00103013A4FEA5404E9
:104610005AF8233021F8023BF5D106EB4006002D75
:104620003FF48BAD18F8013F0820754AD45CE4E7ED
:104630000C9A0D9B0592029A1B690392089A9B683B
:10464000DDF824900692984783B2CDF88CA0DDF86F
:1046500038809A46C84528BFC846C8EB0909BBF14F
:10466000000F3FF451AD4546039E069F05E0013D16
:1046700006F1020607F1010716D014F0010F4FEA08
:104680005404F4D0DBF808303946049A58461B68C5
:104690000236984736F8023C013D07F101078AEAE5
:1046A000030326F8023CE8D1039B03EB4803039382
:1046B000069B43440693B9F1000F3FF43CAD059BC4
:1046C0004FF008084E4A1B78D45C059B01330593D4
:1046D000C0E70E9D099FBAF80430BD42CDF80C80AA
:1046E000CDF88CA0984628BF3D46029EDDF820906C
:1046F000DDF810A07F1BBBF1000F2BD044B936E0D2
:10470000013D09F1010906F1020612D064082ED01C
:10471000E207F5D5DBF808304946524658461B6893
:1047200009F101099847013DA6F8008006F102064B
:10473000ECD1002F3FF4FFAC039A082512F8013F9B
:10474000BD42039228BF3D462D4A7F1BD45CBBF17E
:10475000000FD3D114B90EE064080CD0E30706F1C2
:10476000020648BF26F8028C013DF5D1E1E706EBD1
:104770004506A944DDE706EB4506DAE7214B099A31
:104780001B6802989847DDF848B0584668E4240949
:104790005AF82430A8F80030002F3FF4F6ADBB687B
:1047A0000A46384608991B689847EEE50399029B2C
:1047B00011F8012F02B11A800233B342F8D14EE44E
:1047C000114B1C686CB1209B079A019300921E9BB1
:1047D000099A21990298A047FFF786BB129EFFF71E
:1047E0007FBB1E9B002B7FF77FABFFF7C6BB1298EA
:1047F00000287FF476ABFFF777BB00BF24000020D2
:104800007024010844000020D02D0020084AD169FE
:10481000536B013110B4D16103EBC00413F83020A5
:10482000013203F8302060685DF8044B08307047AF
:104830001029002003680B4A30B4044653F8085C82
:10484000506B10F83530012B03D9D16909B101390A
:10485000D1610022013B00F835301046226030BCA7
:10486000704700BF102900202DE9F843089C054639
:1048700089469846A96843462846561C4F684946CB
:10488000B847013C3246F5D1BDE8F88300B970471E
:104890002DE9F04FA3B08B4692460446FFF7B6FFD2
:1048A00022AB456943F81C0D1846FFF7C3FF2046AD
:1048B00000F0CCFC0828814640DD002D3ED120468A
:1048C000FFF7A4FF22AA0346B0F9081042F8100D22
:1048D00010460D92B3F90A200A9109921968DA6814
:1048E0000E690B930E92FFF7A5FF9248924900685C
:1048F000D6F80480407C51F820100D692B680C9389
:1049000000F0BEFC08280B9B14D910288BBF202276
:104910001022042702270B92AE4200F0F882B9F170
:10492000200F00F0B381B9F1100F00F0458123B0E2
:10493000BDE8F08F082201270B92EDE7002101234B
:1049400020467C4E20910DF188080B9121930A930B
:10495000FFF75CFF074630683A68FB68B7F9081054
:104960001269139314913B69B7F90A10407C0993BB
:10497000169148F8147D5568D7F8149000F080FC23
:1049800032680E90507C00F085FC07464046FFF7E9
:1049900051FF099A0A9B082A0B9940F29D80102A20
:1049A00013460A918CBF042302230C93BD4200F0EE
:1049B000C1813368587C00F075FC149B0646980052
:1049C00000F078FC10900028B1D0204600F076FC72
:1049D0000446B9F1000F00F088804846FFF716FF43
:1049E000169B1E90002B40F3A1810023DDF8388038
:1049F000CDF834A00B93139BCDF848B0E318159372
:104A00001FAB19460F93836800225B691F920B9AB4
:104A10009847159B139A04469B1A0E93149B834246
:104A200000F0F680099B012B00F08880002842D01E
:104A30001CAB11931098FFF7E9FE099B07461C90E9
:104A4000082B1F9A65D90C9BA3460E99824602FB40
:104A5000031939F8020BA847B047BBF1010B4AF81C
:104A6000040BF6D1B8F11F0F04D838464246214650
:104A700000F036FC0A9901231F98224605911299ED
:104A80001C9F08440021019300930391CDF80880F6
:104A90000D99049700F0F8FC1198FFF7CBFE1F9BCF
:104AA0001E981C440B9A83680F991F945B69984762
:104AB00004460028BED1159A13990B9B0A44013372
:104AC00015920D9A0B9301320D92169A9A4200F0AC
:104AD0002D811E980F9996E7012A03D120AB0C92E5
:104AE0000A9363E70C930A9160E701250A9B139AE6
:104AF0000999059304905846039202915146169BDA
:104B0000149A0195009500F0BFFC109800F042FE49
:104B10000DE70C9BA2460E99814602FB031B1BF876
:104B2000010BA847B047BAF1010A49F8040BF6D1C6
:104B300098E700BF24000020402D00200028BAD0B4
:104B4000CDF8608019960B9F0A9EDDF83880DDF85D
:104B50003490DDF848A0DDF83CB017951192DDF8EF
:104B60007CE02246119D01230EF007004946039583
:104B7000012506900AEB0E00BEF1000F0596029586
:104B8000B8BF0EF1070E0195009508EBEE0ECDF8BB
:104B900010E000F019FE1F9B1E983A461C4459462F
:104BA00083681F945B69984704460028D7D1179DF6
:104BB000DDF86080199E7EE70A9B03FB07F000F09A
:104BC00079FB109000283FF4B2AEFFF71FFE209053
:104BD0002046FFF71BFE00F118031E900E932B6971
:104BE000002B00F0A6817369002B00F0A281B0F9C0
:104BF0000800800000F05EFB1190002840F0BA81B0
:104C00001F900D98FFF716FE20A8FFF713FE7CE714
:104C10001098FFF7FBFD099B81461C90082B149F01
:104C20000446DDF838A028D93AF8020BA847B04767
:104C3000013F44F8040BF7D1B8F11F0F04D84846E0
:104C40004246149900F04CFB22AB12980D991A467B
:104C50000A9B059300230393012352F818EDCDF826
:104C6000088017460193149A0093CDF810E000F0E5
:104C70000BFC3846FFF7DEFD1DE71AF8010BA847CD
:104C8000B047013F44F8040BF7D1D5E70A9B07FB77
:104C900003F000F00FFB0E9000283FF448AEFFF742
:104CA000B5FD20902046FFF7B1FD1E902C6900F164
:104CB0001808002C00F0EB800A9A5C4601260A9541
:104CC0004FEA82099346CDF83090DDF8249017E042
:104CD000042F21D0012F15D00B9B0020209D514681
:104CE0000293012305905A460390204601969A4468
:104CF0000096049500F0C8FBB9F1010900F0E880C6
:104D0000022FE5D10C9D40463B465A46A8440A9DD9
:104D100020992D69A847DFE70C9B40460A9D5A461B
:104D2000984420993B462D69A847D5E71EA8FFF770
:104D300081FDEAE6204600F0C1FA8046B9F1000F95
:104D400000F0D4804846FFF761FD169B1E90002BB3
:104D500040F3C88000261FABCDF834A00125B14632
:104D6000DA461F4683683246CDF87C9039465B6947
:104D70009847149B0446834231D0099B012B57D09E
:104D800020B30D9B0B9603EB060B1F9801230C9988
:104D90000A9A01FB008E099E1399504405922246FF
:104DA00003915946CDF810E002960195009500F068
:104DB0006BFB1F9B1E9839461C440B9A83681F94FB
:104DC0005B69984704460028DFD10B9E139B013690
:104DD0009844169BB34240F385801E98C2E7CDF8F5
:104DE0002C80B346984600E0A3461E980BF10104C0
:104DF0003946836822465B6998478045F4D00A9A11
:104E0000C6EB0B03DDF82C805046059201330D9A5A
:104E1000CDF810809119139E099A0396029201957C
:104E2000149A06FB03880095264600F02DFBD0E778
:104E30000028CBD00D9B0B9603EB060BDDF87CE036
:104E400022460A9E01230EF0070059460596069059
:104E50000AEB0E00BEF1000F139E0295B8BF0EF1D3
:104E6000070E0396019508EBEE0E0095CDF810E0C5
:104E700000F0AAFC1F9B1E9839461C440B9A8368BD
:104E80001F945B69984704460028D7D19DE7A14647
:104E90000125099E0123022F51460A9A58460AEB22
:104EA000030E00F0A981042F00F07D819F4200F0E5
:104EB00052810B9CF246CDF814900294209CCDF8C0
:104EC0000C9001950095049400F0DEFA013EE1D1CA
:104ED0000D98FFF7AFFC20A8FFF7ACFC0E9800F090
:104EE00059FC24E51EA8FFF7A5FC20E501240A9B38
:104EF000139A0999059304905846039202915146DA
:104F0000169B149A0194009400F0BEFA0FE50E9AD5
:104F10000124183300250392514604935846099BF7
:104F2000CDF808900A9A05950194009400F0ACFA27
:104F3000FDE40125DDF82890099E0123022F51464A
:104F40004A4658460AEB030E00F0D480042F00F0C6
:104F5000A0809F426DD0002401950095F2460594F3
:104F600003940B9C0294209C049400F08DFA013E63
:104F7000E3D146E6FFF74AFC1F9000283FF441AE1C
:104F80000A9A0124CDF828B04FEA420990460C95C0
:104F9000CDF83C90B146DDF838B017E0042F2ED0A4
:104FA000012F28D00B9B0020209D51460293012306
:104FB0000590424603909A44019400940A980495FF
:104FC00000F062FA099B013B09932BD0022FE5D137
:104FD000209B1E463B4642461F995846D9F814501E
:104FE000A8470F9D31463B46AB440C9D42461F9857
:104FF0002D69A847D6E7209B1E460223EBE7209B9E
:1050000042460F9E58461D461F990223B344D9F8C5
:105010001460B04729460C9D3B4642461F982D69B7
:10502000A847BFE71FA8FFF705FC119800F0B2FBE7
:10503000E7E50A9B444609965D000C9E0C95209D71
:10504000DDF83880DDF8289038F8020BA047B0472B
:10505000B9F1010905F8010BF6D10E9D01230B985A
:105060005146AE460C9D02905846AE44209DCDF868
:1050700014909A440A9ACDF80C90019700970495E1
:10508000CDF838E000F000FA099B013B0993D6D136
:10509000B7E50A9B0125099644465E000C9F0C96D5
:1050A000209EDDF83880DDF8289038F8020BA04704
:1050B000B847B9F1010946F8040BF6D10E9E012359
:1050C0000B985146B6460C9E02905846B644209E18
:1050D000CDF814909A440A9ACDF80C900195009559
:1050E0000496CDF838E000F0CFF9099B013B099315
:1050F000D6D186E50A9B0125099644465E000C9FA1
:105100000C96209EDDF83880DDF8289038F8020BE8
:10511000A047B847B9F1010926F8020BF6D10E9E57
:1051200001230B985146B6460C9E02905846B64451
:10513000209ECDF814909A440A9ACDF80C900195CF
:1051400000950496CDF838E000F09EF9099B013BEC
:105150000993D6D155E595000C9C09960C95209D98
:105160004646DDF8289056F8040BA047B9F101092E
:1051700005F8010BF7D10B980123209E51460290B0
:105180005846CDF814909A440A9ACDF80C9001979D
:10519000009704960C9D00F077F9099BA844013B09
:1051A0000993DCD194E60996012596000C9C0C9697
:1051B000209E4746DDF8289057F8040BA047B9F128
:1051C000010946F8040BF7D10B980123209F5146A3
:1051D00002905846CDF814909A440A9ACDF80C9053
:1051E0000195009504970C9E00F04EF9099BB04480
:1051F000013B0993DCD16BE60996012596000C9CD6
:105200000C96209E4746DDF8289057F8040BA047DF
:10521000B9F1010926F8020BF7D10B980123209F61
:10522000514602905846CDF814909A440A9ACDF807
:105230000C900195009504970C9E00F025F9099BB0
:10524000B044013B0993DCD142E600BF30B583B0E6
:1052500018B90446204603B030BDFFF7D7FA0368FB
:1052600002AD1B6945F8040D9B68984700F0BAFB36
:1052700004462846FFF7DEFA204603B030BD00BFE3
:10528000034B082153F82000C3689B6A184700BFEE
:10529000402D0020024B53F820301B69586870479E
:1052A000402D0020024B53F820301B6918687047CE
:1052B000402D002000B9704700F0C8BB70B110B598
:1052C00082B0FFF7A3FA00F1180402AB43F8040D13
:1052D0001846FFF7AFFA204602B010BD704700BF76
:1052E000082A10B40EDD102A1CDC00EB4101034635
:1052F00050F8042B23F8022B9942F9D101205DF8D4
:10530000044B7047022A11D0042A00F09A80012A27
:105310003FD00144034650F8042B03F8012B994277
:10532000F9D1EBE700205DF8044B704700F1100263
:1053300052F8103C01294FEA8313DBB226D052F811
:105340000C4C02294FEA041404F0300443EA04032D
:105350001CD052F8084C03294FEA840404F00C04D2
:1053600043EA040312D052F8044C043902F110024B
:1053700004F0030443EA040300F8013BBED052F8F2
:10538000103C01294FEA8313DBB2D8D1037001200E
:10539000B5E700F1200252F8203C01294FEAC3137F
:1053A000DBB2F3D052F81C4C02294FEA841404F00B
:1053B000400443EA0403E9D052F8184C03294FEAA9
:1053C000441404F0200443EA0403DFD052F8144CE0
:1053D00004294FEA041404F0100443EA0403D5D06E
:1053E00052F8104C05294FEAC40404F0080443EABB
:1053F0000403CBD052F80C4C06294FEA840404F085
:10540000040443EA0403C1D052F8084C073902F1FE
:1054100020024FEA440404F0020443EA0403B5D036
:1054200052F8244C012904F0010443EA040300F873
:10543000013B52F8203C4FEAC313DBB2B2D10370F8
:10544000A5E700F1080454F8083C01294FEA0313CA
:10545000DBB213D054F8042C023904F1080402F032
:105460000F0243EA020300F8013B3FF447AF54F850
:10547000083C01294FEA0313DBB2EBD10370084665
:105480005DF8044B704700BF2DE9F04FB64C91B06A
:10549000D4F800E01B9D1D9E1E9F1F9C0F9005923F
:1054A0000C93DDF868A00D95DDF870C00E96079797
:1054B0000894BEF1000F06D0DEF80040A44611B0FB
:1054C000BDE8F04F60474AEA05038946012B00F02A
:1054D0009380CCF1080302930C9B002B40F389804E
:1054E000A24BF046E146CDF828E0186804910D9AE9
:1054F000049953181A460B93B0F90A30013A9342B3
:10550000099269DCB0F90E308B4265DB059B002BFC
:1055100062DD00260F9B079F03EB0A0435460697C2
:105520004DE0C9EB0606029B48FA03F208FA09F8B7
:1055300012F0FF025FFA88F802D1037C9B0739D48E
:10554000D0F83CC0DCF800300393089B0BB153F853
:105550002220B0F9083004F1FF3EB0F90CB09942B6
:10556000CCF80020B8BF1946DE457346A8BF5B469D
:105570008B421CDBB0F90A20049FB0F90EE0BA425E
:10558000B8BF3A46099FBE45A8BFBE4672450EDC6D
:10559000407C774F57F82000D0F80CC0CDF800E0E1
:1055A000DCF810B0D847714B1868D0F83CC0039BAA
:1055B000CCF800300135059B5444AB420CD0CAEB0B
:1055C0000401002EADD1069A029E134692F8008087
:1055D000013306933346A7E7079A0E990A9B0A44BC
:1055E000013307920B9A0A9304920C9A9A427FF421
:1055F0007EAF11B0BDE8F08F5C4B1968B1F90A209D
:10560000C9EB0203002B40F3C1800C98C41A002C94
:10561000EFDD06FB037307930C9B4B44B1F90E00BF
:10562000013B1B1A002B02DDE41A002CE1DD0F9870
:10563000059D4319B1F90C00013B1B1A002B01DD3C
:10564000EB1A0593B1F908300F9D9D4215DB00253B
:10565000059B002BCDDD4E7C4548089F50F8260069
:105660000F99C6681E95079D1F971D950E9DCDF835
:105670006CC01C951A94746820E7059E5D1B0CF1A4
:10568000FF30761B05961F28E2D801A656F820F0B9
:10569000755700085157000851560008395700083F
:1056A0005156000851560008515600082D57000861
:1056B000515600085156000851560008515600082E
:1056C0005156000851560008515600081F5700084F
:1056D000515600085156000851560008515600080E
:1056E000515600085156000851560008115700083D
:1056F00051560008515600085156000851560008EE
:10570000515600085156000851560008115700081C
:1057100007980F9300EB85000025079098E70798FE
:105720000F9300EB45000025079091E707980F9332
:105730002844002507908BE7079825F0010300EB2C
:10574000650005F0010507900F9818440F907FE75A
:10575000079825F0030300EBA50005F0030507906B
:105760000F9818440F9073E7C02D002024000020EC
:10577000402D0020079825F0070300EBE50005F019
:10578000070507900F9818440F9061E70C9C4A4654
:10579000234642E700B9704770B50A4CC60005467B
:1057A000636B33445968486800F00AFB6368626BB6
:1057B0000021606A013316446360706002F835109E
:1057C000656270BD102900202DE9F04F91B0824C28
:1057D0001B9D24682E460E951D9D0F900C951E9DB9
:1057E000059206951F9D0D930895DDF868A0DDF8DC
:1057F00070E0209D2CB12468A44611B0BDE8F04FA4
:1058000060474AEA06038946012B00F09280CEF1F8
:10581000080302930D9B002B40F388806F4BA0463A
:10582000F1460A94186804910E9A049953181A467E
:105830000B93B0F90A30013A9342099269DCB0F94E
:105840000E308B4265DB059B002B62DD00260F9B33
:10585000069F03EB0A04354607974DE0C9EB0606A1
:10586000029B48FA03F208FA09F812F0FF025FFA05
:1058700088F802D1037C9B0739D4D0F83CC0DCF80F
:1058800000300393089B0BB153F82220B0F9083085
:1058900004F1FF3EB0F90CB09942CCF80020B8BF3B
:1058A0001946DE457346A8BF5B468B421CDBB0F948
:1058B0000A20049FB0F90EE0BA42B8BF3A46099FE9
:1058C000BE45A8BFBE4672450EDC407C444F57F82B
:1058D0002000D0F80CC0CDF800E0DCF810B0D847BC
:1058E0003E4B1868D0F83CC0039BCCF80030013523
:1058F000059B5444AB420CD0CAEB0401002EADD141
:10590000079A029E134692F80080013307933346AC
:10591000A7E7069A0C990A9B0A44013306920B9A50
:105920000A9304920D9A9A427FF47EAF11B0BDE8BB
:10593000F08F2A4B1868B0F90A20531A002B46DD65
:105940000D99CC1A002CF1DD069E0C9901FB036326
:1059500006930D9B4B44B0F90E10013B5B1A002BD4
:1059600002DDE41A002CE1DD0F99059E8B19B0F9D8
:105970000C10013B5B1A002B01DDF31A05930F9B02
:10598000591BB0F9083099420DDA5B1A059F1D4486
:1059900023F00706FB1A31440593069B03EBE5034E
:1059A00005F007050693059B002BBFDD467C0C48E0
:1059B000089F50F82600C6681E95069D1F971D95E6
:1059C0000C9DCDF86CE01C951A94746814E70D9C3E
:1059D0000A462346BEE700BFC02D00202400002059
:1059E000402D0020B8B130F0010315D030F0030392
:1059F00001D10820704730F00703FAD030F00F03D0
:105A0000F7D030F01F03F4D030F0FF03F1D00B4B90
:105A100003401BB91020704701207047084B03401A
:105A2000002BF7D0074B0340002BF3D0064B03406D
:105A3000002B0CBF10202020704700BF00FEFFFF8E
:105A400000F0FFFF0080FFFF0000FFFF2DE9F041A5
:105A5000C14C054694F82830002B00F0F780206CEC
:105A6000854202D3E81C20F0030000F10C062368F5
:105A7000B94DB34202D20020BDE8F0816B682A6BB9
:105A8000934240F25681656A013B626B01214FEA05
:105A9000C508636002EB08035B68636202F83510B7
:105AA000002DE8D0AC4FD4F8B8E0764580F02381E3
:105AB000D7F8B0309E4280F02081D7F8A8309E42BF
:105AC00080F01D81D7F8A0309E4280F01C81D7F86D
:105AD00098309E4280F01581D7F890309E4280F039
