:020000040800F2
:10000000A8EB0020E5570208754C0208774C02085F
:10001000794C02087B4C02087D4C0208000000006D
:100020000000000000000000000000007F4C0208FB
:10003000814C020800000000834C0208854C020835
:10004000595A02085D5A0208615A0208655A0208A4
:10005000695A02086D5A0208715A0208755A020854
:10006000795A02087D5A0208815A0208855A020804
:10007000895A02088D5A0208915A0208955A0208B4
:10008000995A02089D5A0208A15A0208A55A020864
:10009000A95A0208AD5A0208B15A0208B55A020814
:1000A000B95A0208BD5A0208C15A0208C55A0208C4
:1000B000C95A0208CD5A0208D15A0208D55A020874
:1000C000D95A0208DD5A0208E15A0208E55A020824
:1000D000E95A0208ED5A0208F15A0208F55A0208D4
:1000E000F95A0208FD5A0208015B0208055B020882
:1000F000095B02080D5B0208115B0208155B020830
:10010000195B0208914C02081D5B0208215B020882
:10011000255B0208295B02082D5B0208315B02089F
:10012000355B0208395B02083D5B02089B4C020804
:10013000415B0208455B0208495B02084D5B02080F
:10014000515B0208555B0208595B02085D5B0208BF
:10015000615B0208A54C0208655B0208695B020846
:100160006D5B0208715B0208755B0208795B02082F
:100170007D5B0208815B0208855B020800000000CD
:10018000895B02088D5B0208915B0208955B02089F
:10019000995B02089D5B0208A15B0208A55B02084F
:1001A000A95B0208AD5B0208B15B0208B55B0208FF
:1001B000B95B0208BD5B0208C15B0208C55B0208AF
:1001C000C95B0208CD5B0208392E0208DD4B02082C
:1001D0001D5A0208615502080000000000000000DE
:1001E00020200101EC0100081A0F1400A000FF00FC
:1001F000F80100081C20000808080100D81F0008AA
:1002000008080100B81F00080F0F0200781F00083F
:100210000F0F0200381F00080F0F0200F81E000821
:100220000F0F0200B81E000806060100981E000805
:100230000F0F0200581E000809090200181E0008CE
:1002400014140300B81D00080A0A0200781D0008F3
:100250000F0F0200381D000810100200F81C0008E3
:1002600009090200B81C000814140300581C0008F7
:100270000F0F0200181C00080B0B0200D81B00080F
:100280000F0F0200981B000809090200581B000804
:1002900009090200181B000809090200D81A000801
:1002A00010100200981A00080F0F0200581A0008D8
:1002B00008080100381A000809090200F8190008A6
:1002C00009090200B81900080A0A02007819000892
:1002D0000F0F02003819000817170300D81800087C
:1002E00017170300781800081717030018180008DC
:1002F00011110300B8170008121203005817000864
:1003000012120300F81600081212030098160008D3
:10031000121203003816000812120300D815000844
:1003200012120300781500081B1B0400F8140008C3
:100330001414030098140008121203003814000863
:1003400012120300D81300081212030078130008D9
:10035000121203001813000808080100F812000820
:1003600008080100D812000808080100B8120008A7
:10037000080801009812000814140300381200083D
:1003800013130300D8110008151503007811000895
:10039000151503001811000815150300B810000802
:1003A000151503005810000815150300F80F000874
:1003B00010100200B80F000815150300580F0008B0
:1003C00013130300F80E000813130300980E00081F
:1003D00013130300380E000813130300D80D000890
:1003E00012120300780D000812120300180D000805
:1003F00011110300B80C00080F0F0200780C000860
:100400000F0F0200380C00080F0F0200F80B000855
:100410000F0F0200B80B00080F0F0200780B000846
:100420000F0F0200380B000818180300D80A000844
:100430000E0E0200980A00080F0F0200580A00086A
:100440000F0F0200180A00080F0F0200D809000859
:100450000F0F02009809000806060100780900083D
:1004600006060100580900080606010038090008C0
:1004700006060100180900080F0F0200D80800083E
:100480000F0F0200980800080F0F0200580800081C
:100490000F0F0200180800080F0F0200D80700080D
:1004A0000F0F0200980700080F0F020058070008FE
:1004B0000F0F02001807000811110300B80600080A
:1004C0000F0F0200780600080F0F02003806000820
:1004D0000F0F0200F80500080F0F0200B805000812
:1004E0000E0E0200780500080F0F02003805000804
:1004F0000E0E0200F80400080000000000000000DA
:1005000000000000000000000CC00CC000006018DB
:100510006018303030303830186018600C600CC013
:100520000CC006C00780078003800300030006009C
:1005300006003C0038000000000000000000000041
:10054000000000003000300030003000300033C0C8
:100550003FF03C383818300C300C300C300C300C7C
:10056000300C301C38183C383FF033C030003000BD
:1005700030003000300000000000000000000000EB
:100580000000000001C003800300060000006018A6
:100590006018303030303830186018600C600CC093
:1005A0000CC006C00780078003800300030006001C
:1005B00006003C00380000000000000000000000C1
:1005C00000000000000000000CC00CC0000030184B
:1005D00030183018301830183018301830183018DB
:1005E00030183018303838781FD80F9800000000C5
:1005F00000000000000000000000000000000000FB
:1006000000000000018003C0066006600000301892
:10061000301830183018301830183018301830189A
:1006200030183018303838781FD80F980000000084
:1006300000000000000000000000000000000000BA
:100640000000000000E001C001800300000030183D
:10065000301830183018301830183018301830185A
:1006600030183018303838781FD80F980000000044
:10067000000000000000000000000000000000007A
:10068000000000000E000700030001800000301889
:10069000301830183018301830183018301830181A
:1006A00030183018303838781FD80F980000000004
:1006B000000000000000000000000000000000003A
:1006C000000000000000000000000000000000002A
:1006D00000000000000000040007FE001FFC0038BE
:1006E0003C00301C00703E0060760060E60061C691
:1006F000006386006706006E0E007C0C00383C002C
:100700003FF8006FE0002000000000000000000043
:1007100000000000000000000000000000000000D9
:1007200000000000000000000000000000000300C6
:100730000300000000007FF87FF8000000000300C5
:1007400003000000000000000000000000000000A6
:100750000000000000000000000000000000000099
:10076000000000000000000006600660000007C0F6
:100770001FF038383018701C600C600C600C600C76
:10078000600C701C301838381FF007C000000000E3
:100790000000000000000000000000000000000059
:1007A00000000000000007300FF00CE0000007C060
:1007B0001FF038383018701C600C600C600C600C36
:1007C000600C701C301838381FF007C000000000A3
:1007D0000000000000000000000000000000000019
:1007E00000000000018003C006600660000007C032
:1007F0001FF038383018701C600C600C600C600CF6
:10080000600C701C301838381FF007C00000000062
:1008100000000000000000000000000000000000D8
:100820000000000000E001C001800300000007C0DC
:100830001FF038383018701C600C600C600C600CB5
:10084000600C701C301838381FF007C00000000022
:100850000000000000000000000000000000000098
:100860000000000007000380018000C0000007C0F6
:100870001FF038383018701C600C600C600C600C75
:10088000600C701C301838381FF007C000000000E2
:100890000000000000000000000000000000000058
:1008A00000000000000007300FF00CE0000033E013
:1008B0003FF03C38381830183018301830183018DD
:1008C0003018301830183018301830180000000078
:1008D0000000000000000000000000000000000018
:1008E000000000000F1003F003C00EE0087007B016
:1008F0001FF838383018701C600C600C600C600CED
:10090000600C701C301838381FF007C00000000061
:1009100000000000000000000000000000000000D7
:10092000CCCC0030303030303030303030303030BF
:1009300030300000000000000000000000003078AF
:10094000CCCC00303030303030303030303030309F
:1009500030300000000000000000000000001C38E3
:100960003060003030303030303030303030303087
:100970003030000000000000000000000000E070C7
:1009800030180030303030303030303030303030AF
:1009900030300000000000000000000000000000F7
:1009A000000000000000000006600660000007C0B4
:1009B0001FF038383018600C600C7FFC7FFC600042
:1009C00060007000300C3C381FF007E000000000B1
:1009D0000000000000000000000000000000000017
:1009E00000000000018003C006600660000007C030
:1009F0001FF038383018600C600C7FFC7FFC600002
:100A000060007000300C3C381FF007E00000000070
:100A100000000000000000000000000000000000D6
:100A20000000000000E001C001800300000007C0DA
:100A30001FF038383018600C600C7FFC7FFC6000C1
:100A400060007000300C3C381FF007E00000000030
:100A50000000000000000000000000000000000096
:100A60000000000007000380018000C0000007C0F4
:100A70001FF038383018600C600C7FFC7FFC600081
:100A800060007000300C3C381FF007E000000000F0
:100A90000000000000000000000000000000000056
:100AA000000000000000000000000000000007C07F
:100AB0001FE038703038601860006000600060002F
:100AC00060186018303038701FE007C0030007005E
:100AD000018001801F801F00000000000000000056
:100AE0000000000000000000000000000000000006
:100AF0000000000000000000000FC3E03FFFF830DE
:100B00003E1C601C0C0018060078060FFFFE3F9F7D
:100B1000FE301800601800601806603C0C706E1CF7
:100B20003FC7F81F03E000000000000000000000C5
:100B300000000000000000000000000000000000B5
:100B400000000380044004400440038000000FE0E4
:100B50003FF030386018001800F80FF83F98301850
:100B600060186018603870F83FD81F8C00000000D3
:100B70000000000000000000000000000000000075
:100B800000000000000000000660066000000FE0AA
:100B90003FF030386018001800F80FF83F98301810
:100BA00060186018603870F83FD81F8C0000000093
:100BB0000000000000000000000000000000000035
:100BC0000000000000000E601FE019C000000FE0F0
:100BD0003FF030386018001800F80FF83F983018D0
:100BE00060186018603870F83FD81F8C0000000053
:100BF00000000000000000000000000000000000F5
:100C000000000000030007800CC00CC000000FE0D3
:100C10003FF030386018001800F80FF83F9830188F
:100C200060186018603870F83FD81F8C0000000012
:100C300000000000000000000000000000000000B4
:100C40000000000000E001C00180030000000FE090
:100C50003FF030386018001800F80FF83F9830184F
:100C600060186018603870F83FD81F8C00000000D2
:100C70000000000000000000000000000000000074
:100C80000000000007000380018000C000000FE0AA
:100C90003FF030386018001800F80FF83F9830180F
:100CA00060186018603870F83FD81F8C0000000092
:100CB0000000000000000000000000000000000034
:100CC0000000000000000000000007E0000FF0003E
:100CD0001C38003818003018003018003030003050
:100CE0003000306000306000307000303800301E5E
:100CF0000030060030030030030031830033C700AA
:100D000031FE00307C000000000000000000000008
:100D100000000000000000000000000000000000D3
:100D20000000000000000000000030000030000063
:100D30003000003000003FF8003FFE003007003078
:100D40000380300180300180300180300180300329
:100D5000003007003FFE003FF80030000030000088
:100D60003000003000000000000000000000000023
:100D7000000000000000000000700000E00000C063
:100D800000018000000000000000600380300700C8
:100D9000180600180E000C0C000E1C00073800038B
:100DA000300003300001E00001E00000C00000C09E
:100DB0000000C00000C00000C00000C00000C00073
:100DC00000C00000C00000000000000000000000A3
:100DD000000000000000000000000000000001987A
:100DE0000001980000000000000030018030018008
:100DF000300180300180300180300180300180304E
:100E0000018030018030018030018030018030016C
:100E1000803001803001803803801803001E0F00ED
:100E20000FFE0003F80000000000000000000000BA
:100E3000000000000000000000600000F0000198C9
:100E400000019800000000000000300180300180A7
:100E500030018030018030018030018030018030ED
:100E6000018030018030018030018030018030010C
:100E7000803001803001803803801803001E0F008D
:100E80000FFE0003F800000000000000000000005A
:100E9000000000000000000000380000700000604A
:100EA0000000C00000000000000030018030018020
:100EB000300180300180300180300180300180308D
:100EC00001803001803001803001803001803001AC
:100ED000803001803001803803801803001E0F002D
:100EE0000FFE0003F80000000000000000000000FA
:100EF000000000000000000003800001C00000C0EE
:100F0000000060000000000000003001803001801F
:100F1000300180300180300180300180300180302C
:100F2000018030018030018030018030018030014B
:100F3000803001803001803803801803001E0F00CC
:100F40000FFE0003F8000000000000000000000099
:100F50000000000000000000000000000000000091
:100F60000000000000000000000001FC3007FE70DF
:100F70000F07E01C01C03801C0300360300660601C
:100F80000E30601C3060383060703060E03060C01F
:100F9000307180703300603E00E01C01C01F07808C
:100FA0003FFF0071FC002000000000000000000076
:100FB0000000000000000000000000000000000031
:100FC0000000000000000000000000000000180CFD
:100FD0001C1C0E38077003E001C003E007700E38D8
:100FE0001C1C180C000000000000000000000000A5
:100FF000000000000000000000000000000000CC25
:101000000000CC0000000000000001FC0007FF0011
:101010000F07801C01C03800E03000607000706075
:1010200000306000306000306000306000306000F0
:10103000307000703000603800E01C01C00F078085
:1010400007FF0001FC00000000000000000000009D
:10105000000000000000000000000001CC0003FCC4
:101060000003380000000000000001FC0007FF0042
:101070000F07801C01C03800E03000607000706015
:101080000030600030600030600030600030600090
:10109000307000703000603800E01C01C00F078025
:1010A00007FF0001FC00000000000000000000003D
:1010B000000000000000000000300000780000CCBC
:1010C0000000CC0000000000000001FC0007FF0051
:1010D0000F07801C01C03800E030006070007060B5
:1010E0000030600030600030600030600030600030
:1010F000307000703000603800E01C01C00F0780C5
:1011000007FF0001FC0000000000000000000000DC
:101110000000000000000000001C0000380000304B
:101120000000600000000000000001FC0007FF005C
:101130000F07801C01C03800E03000607000706054
:1011400000306000306000306000306000306000CF
:10115000307000703000603800E01C01C00F078064
:1011600007FF0001FC00000000000000000000007C
:10117000000000000000000000E0000070000030EF
:101180000000180000000000000001FC0007FF0044
:101190000F07801C01C03800E030006070007060F4
:1011A000003060003060003060003060003060006F
:1011B000307000703000603800E01C01C00F078004
:1011C00007FF0001FC00000000000000000000001C
:1011D000000000000000000000000001CC0003FC43
:1011E0000003380000000000000038018038018052
:1011F0003C01803C01803601803301803301803125
:10120000818030C18030C180306180306180303178
:1012100080301980301980300D8030078030078091
:101220003003803003800000000000000000000058
:1012300000000000000000000000000000000000AE
:10124000000000000000000000003FFC003FFE0026
:101250003007803001803000C03000C03000603086
:101260000060300060FFC060FFC060300060300090
:10127000603000603000C03000C030018030078036
:101280003FFE003FF80000000000000000000000EA
:101290000000000000000000000066660000181852
:1012A00018181818181818181818181818181818BE
:1012B0001818000000000000183C666600001818AE
:1012C000181818181818181818181818181818189E
:1012D00018180000000000000E1C1830000018183C
:1012E000181818181818181818181818181818187E
:1012F00018180000000000007038180C00001818C2
:10130000181818181818181818181818181818185D
:101310001818000000000000000000000000019804
:10132000000198000000000000003FFF803FFF80A8
:10133000300000300000300000300000300000308D
:1013400000003000003FFF003FFF00300000300091
:10135000003000003000003000003000003000009D
:101360003FFF803FFF800000000000000000000001
:10137000000000000000000000600000F000019884
:10138000000198000000000000003FFF803FFF8048
:10139000300000300000300000300000300000302D
:1013A00000003000003FFF003FFF00300000300031
:1013B000003000003000003000003000003000003D
:1013C0003FFF803FFF8000000000000000000000A1
:1013D0000000000000000000003800007000006005
:1013E0000000C0000000000000003FFF803FFF80C1
:1013F00030000030000030000030000030000030CD
:1014000000003000003FFF003FFF003000003000D0
:1014100000300000300000300000300000300000DC
:101420003FFF803FFF800000000000000000000040
:10143000000000000000000001C00000E0000060AB
:10144000000030000000000000003FFF803FFF80F0
:10145000300000300000300000300000300000306C
:1014600000003000003FFF003FFF00300000300070
:10147000003000003000003000003000003000007C
:101480003FFF803FFF8000000000000000000000E0
:10149000000000000000000000000000000000004C
:1014A0000000000000000000000001FC0007FF0039
:1014B0000F03801C01C03800E03000607000006045
:1014C000000060000060000060000060000060003C
:1014D000003000603000E03800C01C01C00E078002
:1014E00007FF0001FC0000600000E0000030000089
:1014F000300003F00003E0000000000000000000E6
:1015000000000000000000000000000000000000DB
:10151000007FFFC0007FFFC000C6000000C60000C3
:10152000018600000186000003060000030600009B
:10153000060600000607FF800C07FF800C0600006F
:101540001FFE00001FFE00003006000030060000F5
:101550006006000060060000C007FFC0C007FFC0B3
:10156000000000000000000000000000000000007B
:10157000000000000000000000000000000001C0AA
:101580000002200002200002200001C00001C00073
:101590000360000360000770000630000630000E94
:1015A00038000C18000C1800180C00180C001FFC58
:1015B000003FFE003006007007006003006003007B
:1015C000C00180C001800000000000000000000099
:1015D00000000000000000000000000000000330D8
:1015E0000003300000000000000001C00001C00046
:1015F0000360000360000770000630000630000E34
:1016000038000C18000C1800180C00180C001FFCF7
:10161000003FFE003006007007006003006003001A
:10162000C00180C001800000000000000000000038
:10163000000000000000000000000003980007F810
:101640000006700000000000000001C00001C000A2
:101650000360000360000770000630000630000ED3
:1016600038000C18000C1800180C00180C001FFC97
:10167000003FFE00300600700700600300600300BA
:10168000C00180C0018000000000000000000000D8
:10169000000000000000000001800003C0000660A0
:1016A0000006600000000000000001C00001C00052
:1016B0000360000360000770000630000630000E73
:1016C00038000C18000C1800180C00180C001FFC37
:1016D000003FFE003006007007006003006003005A
:1016E000C00180C001800000000000000000000078
:1016F000000000000000000000700000E00000C0DA
:101700000001800000000000000001C00001C000D6
:101710000360000360000770000630000630000E12
:1017200038000C18000C1800180C00180C001FFCD6
:10173000003FFE00300600700700600300600300F9
:10174000C00180C001800000000000000000000017
:10175000000000000000000003800001C00000C085
:101760000000600000000000000001C00001C00097
:101770000360000360000770000630000630000EB2
:1017800038000C18000C1800180C00180C001FFC76
:10179000003FFE0030060070070060030060030099
:1017A000C00180C0018000000000000000000000B7
:1017B0000000000000000000000000000000000029
:1017C0000000000000000000000000000000000019
:1017D0000000000000000000000180000180000007
:1017E00000000000000180000180000180000380F3
:1017F000000700000600000C000018000038000080
:10180000300000300600300600380C001C1C000FB1
:10181000F80003E0000000000000000000000000ED
:10182000000000000000000000003E00307F00606B
:10183000C300E00300C00C0180030300030700C7DE
:1018400006007E0C003C180000381800303800609C
:101850007800C0F801C0D80181980303180703FC81
:101860000600180C00180000000000000000000036
:101870000000000000000000000000000000000068
:10188000000000000000000000000600301E0060A4
:101890003E00C02601C006018006030006060006C1
:1018A0000E00060C000618000030F80071FC006302
:1018B0000C00C00C0180180380300300600601801A
:1018C0000C01FC1C03FC00000000000000000000F4
:1018D0000000000000000000000000000000000008
:1018E000000000000000000000000600301E006044
:1018F0003E00C02601C00601800603000607000660
:101900000E00060C00061800003818003038006081
:101910007800C07801C0D80181980303180603FC41
:101920000E00180C0018000000000000000000006D
:1019300000000000000000000000000000000000A7
:101940000000000000000000000000000000000097
:101950000000318018C00C600C60063003180318BA
:1019600006300C600C6018C03180000000000000E0
:101970000000000000000000000000000000000067
:10198000000000001E003F00738061806180618064
:10199000618073803F001E00000000000000000016
:1019A0000000000000000000000000000000000037
:1019B0000000000000000000000000000000000027
:1019C0000000000006001E003E0026000600060083
:1019D00006000600060006000000000000000000EF
:1019E00000000000000000000000000000000000F7
:1019F00000000000000000000000000000000000E7
:101A000000000000000000000000000000000000D6
:101A100000000000000000000000000000000000C6
:101A20000000000000000000000000001800380066
:101A30000C000C00FC00F80000000000000000009A
:101A40000000000000000000303000000000000036
:101A50000000000000000000000000000000000086
:101A6000000000001FFE3FFE7F18FF18FF18FF1840
:101A7000FF18FF187F183F181F18031803180318C2
:101A8000031803180318031803180318031803187E
:101A900003180318031800000000000000000000F5
:101AA0000000000000000000000000000000300CFA
:101AB000300C300C300C300C300C300C300C300C46
:101AC000300C300C381C3C3C3FFC37CC3000300034
:101AD0003000300030000000000000000000000076
:101AE0000000000007000E000C00180000000000BD
:101AF00000000000000000000000000000000000E6
:101B000000000000000000000000000000000000D5
:101B100000000000000000000000000000000000C5
:101B2000000000003E007F00C30003000C00030023
:101B30000300C7007E003C00000000000000000021
:101B40000000000000000000000000000000000095
:101B50000000000000000000000000000000000085
:101B6000000000003E007F00C300030006000C00E0
:101B7000180030007F00FF0000000000000000009F
:101B80000000000000000000000000000000000055
:101B90000000000000000000000000000000000045
:101BA000000000000000000000000000030003002F
:101BB0000300030003007FF87FF803000300030025
:101BC00003000300000000007FF87FF80000000021
:101BD0000000000000000000000000000000000005
:101BE000000000000E0011002080208020801100E5
:101BF0000E000000000000000000000000000000D7
:101C000000000000000000000000000000000000D4
:101C10000000000000000000000000000000FFFEC7
:101C2000FFFE0000000000000000000000000000B7
:101C300000000000000000000000000000000000A4
:101C40000000000000000000000000000000000094
:101C50000000000000000000000000000000000084
:101C60000000000000000000000001F80007FE0076
:101C70001E07803801C033F8C063F860630C60C38E
:101C80000C30C30C30C3FC30C3F830C33030C31841
:101C900030630C60630C603306C03801C01E0780DF
:101CA00007FE0001F8000000000000000000000036
:101CB0000000000000000000000000000000000024
:101CC0000000000000000000000000000000000014
:101CD0000000000000000000000000007F007F0006
:101CE00000000000000000000000000000000000F4
:101CF00000000000000000000000000000000000E4
:101D000000000000000000000000000000000000D3
:101D10007FFC7FFC000C000C000C000C000C000C85
:101D200000000000000000000000000000000000B3
:101D300000000000000000000000000000000000A3
:101D40000000000000000000000000000000000093
:101D50000000031806300C600C6018C03180318020
:101D600018C00C600C600630031800000000000072
:101D70000000000000000000000000000000000063
:101D8000000000003E003F00630003001F007B00D6
:101D9000630067007F003B000000000000000000BF
:101DA0000000000000000000000000000000000033
:101DB0000000000000000000000000000000000023
:101DC0000000000000000000000001F80007FE0015
:101DD0001E07803801C030F8C061FC60638E60C7A8
:101DE0000030C60030C60030C60030C60030C7061E
:101DF00030630C6061FC6030F0C03801C01E0780A9
:101E000007FE0001F80000000000000000000000D4
:101E100000000000000000000000000000000000C2
:101E200000000000660066000000000000000000E6
:101E300000000000000000000000000000000000A2
:101E40000000000000000000000000000000000092
:101E50000000000000000000000000000000000082
:101E60000000000007C01FE038303038301838005C
:101E70001C000F003FC061E060F8603C601C380C43
:101E80003E0C0F9803F001F000700038301838183D
:101E90001C380FF007C000000000000000003030C8
:101EA0003030303030303030000000000030303022
:101EB00030303030303030000000000000000000D2
:101EC00000000000C00C601860183030303018601E
:101ED0000CC00CC007807FF87FF8030003007FF878
:101EE0007FF803000300030003000300000000006C
:101EF00000000000000000000000000000000000E2
:101F0000000000000000000000000000200877DC56
:101F10003FF81C70383830183018301838381C70BA
:101F20003FF877DC200800000000000000000000FF
:101F300000000000000000000000000000000000A1
:101F40000000000007C00FE01C7038383018300067
:101F5000300030003000FF80FF80180018001800AB
:101F60001800300020007F08FFFC60F8000000002F
:101F70000000000000000000000000000000000061
:101F8000000000000020002000200020004007C0CA
:101F90001FF038F030B8709061006100610062009D
:101FA000621872183C303C701FE00F800800080077
:101FB00010001000100000000000000000000000F1
:101FC0000000001818000018181818181818181809
:101FD0001818181818181800000000000000000059
:101FE00000000000000000000000000000000000F1
:101FF0000000000000000000392E0208DD4B02083E
:102000001D5A02086155020800000000000000008F
:10201000202001011C2000081A0F140020007E005F
:10202000282000080000000008080100203C0008EB
:1020300008080100003C00080A0A0200C03B000832
:102040000F0F0200803B00080F0F0200403B00080A
:1020500018180300E03A000812120300803A000842
:1020600005050100603A000809090200203A00084D
:1020700009090200E03900080B0B0200A039000832
:1020800010100200603900080808010040390008FB
:10209000090902000039000808080100E0380008BA
:1020A00008080100C03800080F0F0200803800083F
:1020B0000F0F0200403800080F0F02000038000820
:1020C0000F0F0200C03700080F0F02008037000812
:1020D0000F0F0200403700080F0F02000037000802
:1020E0000F0F0200C03600080F0F020080360008F4
:1020F0000F0F0200403600080808010020360008D3
:10210000080801000036000810100200C035000861
:102110001010020080350008101002004035000841
:102120000F0F0200003500081B1B0400803400085C
:10213000121203002034000812120300C0330008FA
:102140001414030060330008141403000033000863
:1021500012120300A03200081111030040320008DF
:1021600015150300E0310008131303008031000847
:1021700008080100603100080D0D02002031000840
:1021800012120300C03000080F0F02008030000858
:10219000171703002030000813130300C02F000896
:1021A00015150300602F000811110300002F00080F
:1021B00015150300A02E000814140300402E00087B
:1021C00012120300E02D000810100200A02D0008DC
:1021D00013130300402D000811110300E02C000828
:1021E0001C1C0400602C000811110300002C0008C6
:1021F00012120300A02B000811110300402B00084D
:1022000008080100202B000808080100002B000826
:1022100008080100E02A00080C0C0200A02A0008AF
:102220000F0F0200602A000809090200202A000896
:102230000F0F0200E02900080F0F0200A02900087C
:102240000E0E0200602900080F0F0200202900086E
:102250000F0F0200E028000807070100C02800084F
:102260000F0F0200802800080F0F0200402800080E
:1022700006060100202800080606010000280008C4
:102280000E0E0200C027000806060100A027000865
:1022900016160300402700080F0F02000027000851
:1022A0000F0F0200C02600080F0F02008026000852
:1022B0000F0F02004026000809090200002600084E
:1022C0000E0E0200C025000808080100A025000825
:1022D0000F0F0200602500080D0D020020250008E8
:1022E00013130300C02400080C0C02008024000813
:1022F0000E0E0200402400080D0D0200002400080C
:1023000009090200C023000806060100A0230008F6
:1023100009090200602300081010020020230008B1
:1023200000000000000000000000000000000000AD
:102330000000000000000000000000001E007FC63A
:1023400061FE407800000000000000000000000076
:10235000000000000000000000000000000000007D
:10236000000000000000000000000000E000F0009D
:10237000180018001800180018001800180018009D
:1023800018000C00070007000C00180018001800C7
:1023900018001800180018001800F000E0000000F5
:1023A000000000000000303030303030303030304D
:1023B000303030303030303030303030303030004D
:1023C0000000000000000000000000000380078003
:1023D0000E000C000C000C000C000C000C000C009B
:1023E0000C0018007000700018000C000C000C00AD
:1023F0000C000C000C000C000C0007800380000097
:1024000000000000000000000000000000000000CC
:102410000000000000007FF07FF0007000E001C0CD
:102420000380070007000E001C0038007000E00069
:10243000FFF0FFF0000000000000000000000000BE
:10244000000000000000000000000000000000008C
:102450000000000000006018601830303030383064
:10246000186018600C600CC00CC006C007800780A4
:10247000038003000300060006003C003800000053
:10248000000000000000000000000000000000004C
:10249000000000000000E030606030E038C01980CB
:1024A0000F800F0006000F000F00198039C030C0E8
:1024B0006060E0700000000000000000000000000C
:1024C000000000000000000000000000000000000C
:1024D00000000000000000000000000000000000FC
:1024E00000C04060C0E060C0E06060A0C061B0C0FB
:1024F00061B1C031B180311180331B801B1B001BC7
:102500001B000A0A000E0E000E0E0004040000005C
:1025100000000000000000000000000000000000BB
:1025200000000000000000000000000000000000AB
:10253000000000000000C018C018603060307070EB
:102540003060386018C018C01D800D800D800700F5
:102550000700020000000000000000000000000072
:10256000000000000000000000000000000000006B
:1025700000000000000030183018301830183018F3
:102580003018301830183018301830183038387883
:102590001FD80F980000000000000000000000009D
:1025A0000000000000001030303030FEFE303030CF
:1025B00030303030303030303E1E0000000000003F
:1025C000000000000000000000000000000000000B
:1025D0000000000000000F803FE07070603060007D
:1025E00078003F801FF003F0003860187018383012
:1025F0001FF00FC0000000000000000000000000FD
:1026000000000000000000000000000000000000CA
:1026100000000000000037803F80380038003000A4
:10262000300030003000300030003000300030002A
:10263000300030000000000000000000000000003A
:10264000000000000000000000000000000000008A
:1026500000000000000007981FD838783038601854
:102660006018601860186018601870183038387872
:102670001FD807980018001800180018001800004C
:10268000000000000000000000000000000000004A
:1026900000000000000033C037F03C383818300C20
:1026A000300C300C300C300C300C300C38183C38FE
:1026B00037F033C030003000300030003000000010
:1026C000000000000000000000000000000000000A
:1026D00000000000000007C01FF038383018701CE0
:1026E000600C600C600C600C600C701C301838388A
:1026F0001FF007C000000000000000000000000004
:1027000000000000000000000000000000000000C9
:1027100000000000000033E03FF03C38381830186B
:102720003018301830183018301830183018301869
:102730003018301800000000000000000000000009
:102740000000000000000000000000000000000089
:102750000000000000000000000000000000000079
:102760000033C3C037EFE03C7C7038383030303055
:102770003030303030303030303030303030303059
:1027800030303030303030303030303030300000A9
:102790000000000000000000000000000000000039
:1027A0000000000000003030303030303030303049
:1027B0003030303030303030303000000000000039
:1027C00000000000000000000000000030003000A9
:1027D000300030003000301C3038307030E031C014
:1027E00037803F803F8039C030E030E0307030309B
:1027F0003038301C00000000000000000000000025
:102800000000000000003030000000303030303078
:1028100030303030303030303030303030E0E00088
:102820000000000000003030000000303030303058
:1028300030303030303030303030000000000000B8
:102840000000000000000000000000003000300028
:1028500030003000300033E03FF03C38381830189A
:102860003018301830183018301830183018301828
:1028700030183018000000000000000000000000C8
:102880000000000000000000000000000000000048
:1028900000000000000007981FD838783038601812
:1028A0006018601860186018601860183038387840
:1028B0001FD807986018603870703FE00FC00000A4
:1028C0000000000000001E3E303030FEFE30303090
:1028D0003030303030303030303000000000000018
:1028E00000000000000000000000000000000000E8
:1028F00000000000000007C01FF038383018600CDE
:10290000600C7FFC7FFC600060007000300C3C3885
:102910001FF007E0000000000000000000000000C1
:102920000000000000000000000000000018001877
:1029300000180018001807981FD838783038601829
:10294000601860186018601860187018303838788F
:102950001FF80798000000000000000000000000C1
:102960000000000000000000000000000000000067
:1029700000000000000007C01FE038703038601809
:1029800060006000600060006018601830303870CF
:102990001FE007C000000000000000000000000071
:1029A00000000000000000000000000030003000C7
:1029B00030003000300033C037F03C383818300C6D
:1029C000300C300C300C300C300C301C38183C38CB
:1029D0003FF033C0000000000000000000000000D5
:1029E00000000000000000000000000000000000E7
:1029F0000000000000000FE03FF0303860180018C1
:102A000000F80FF83F98301860186018603870F8B8
:102A10003FD81F8C000000000000000000000000F4
:102A200000000000000000000000000070003800FE
:102A300018000C0000000000000000000000000072
:102A40000000000000000000000000000000000086
:102A50000000000000000000000000000000000076
:102A60000000000000000000000000000000000066
:102A70000000000000000000000000000000000056
:102A80000000000000000000000000000000000046
:102A900000000000000000000000FFFEFFFE00003C
:102AA00000000000000000000000000006000F0011
:102AB0000F0019801980198030C030C030C06060AC
:102AC0000000000000000000000000000000000006
:102AD00000000000000000000000000000000000F6
:102AE0000000000000007C7C0C0C0C0C0C0C0C0C8E
:102AF0000C0C0C0C0C0C0C0C0C0C0C0C0C7C7C0042
:102B0000000000000000C0C0606060303030381845
:102B100018180C0C0C060606070300000000000045
:102B20000000000000003E3E3030303030303030A9
:102B3000303030303030303030303030303E3E00A9
:102B40000000000000000000000000000000000085
:102B500000007FFF007FFF00000600000C0000184F
:102B60000000380000700000600000C00001C000DC
:102B70000380000300000600000C00001C00003869
:102B80000000300000600000FFFF00FFFF000000B9
:102B90000000000000000000000000000000000035
:102BA0000000000000000000000000000000000025
:102BB0000000600380300700180600180E000C0C9F
:102BC000000E1C0007380003300003300001E00055
:102BD00001E00000C00000C00000C00000C0000014
:102BE000C00000C00000C00000C00000C000000025
:102BF00000000000000000000000000000000000D5
:102C000000000000000000000000000000000000C4
:102C10000000700700380E00180C001C1C000E3855
:102C20000007700007700003600001C00001C000D1
:102C300001C0000360000770000E38000E38001C51
:102C40001C00380E00380600700700E0038000000A
:102C50000000000000000000000000000000000074
:102C60000000000000000000000000000000000064
:102C70000000000000000000C00E0060C00E0060F8
:102C8000601B00C0601B00C0601B00C0603180C0C2
:102C900030318180303181803060C1803860C380C4
:102CA0001860C30018E0630018C063001CC0660011
:102CB0000DC076000D8036000D80360007803C0088
:102CC00007001C0007001C000000000000000000BE
:102CD00000000000000000000000000000000000F4
:102CE00000000000000000000000000000000000E4
:102CF0000000C00180E003806003006003007007F3
:102D000000300600300600180C00180C001C1C00D7
:102D10000C18000C18000E38000630000670000376
:102D2000600003600003E00001C00001C00000007B
:102D30000000000000000000000000000000000093
:102D40000000000000000000000000000000000083
:102D5000000030018030018030018030018030017E
:102D6000803001803001803001803001803001806E
:102D700030018030018030018030018030018038A6
:102D800003801803001E0F000FFE0003F800000070
:102D90000000000000000000000000000000000033
:102DA0000000000000000000000000007FFE7FFE29
:102DB000018001800180018001800180018001800B
:102DC00001800180018001800180018001800180FB
:102DD00001800180000000000000000000000000F1
:102DE00000000000000000000000000000000000E3
:102DF000000003F8000FFE001C0F00380300300134
:102E0000803001803800001C00001FE0000FFC0033
:102E100000FF00000F0000038060018060018070EF
:102E200001803803001C07000FFE0003F8000000BB
:102E30000000000000000000000000000000000092
:102E40000000000000000000000000000000000082
:102E500000003FFE003FFF003003803001C0300023
:102E6000C03000C03000C03001C03003803FFF00E0
:102E70003FFC00303800301800300C00300E0030BD
:102E800007003003003001803001C03000C0000076
:102E90000000000000000000000000000000000032
:102EA0000000000000000000000000000000000022
:102EB000000001FC0007FF000F07801C01C0380064
:102EC000E030006030006060003060003060003052
:102ED00060003060003060003030007030006038DA
:102EE0001CE01C1FC00F07C007FFE001FC700000C2
:102EF00030000000000000000000000000000000A2
:102F000000000000000000000000000000000000C1
:102F100000003FF8003FFC00300E00300700300397
:102F200000300300300300300300300700300E0093
:102F30003FFC003FF0003000003000003000003067
:102F400000003000003000003000003000000000C1
:102F50000000000000000000000000000000000071
:102F60000000000000000000000000000000000061
:102F7000000001FC0007FF000F07801C01C03800A3
:102F8000E030006070007060003060003060003041
:102F900060003060003060003070007030006038D9
:102FA00000E01C01C00F078007FF0001FC000000CB
:102FB0000000000000000000000000000000000011
:102FC0000000000000000000000000000000000001
:102FD00000003801803801803C01803C01803601CE
:102FE0008033018033018031818030C18030C180E5
:102FF000306180306180303180301980301980300C
:103000000D8030078030078030038030038000005F
:1030100000000000000000000000000000000000B0
:1030200000000000000000000000000000000000A0
:1030300000001C00701E00F01E00F01E00F01B01BE
:10304000B01B01B01B01B0198330198330198330D4
:1030500018C63018C63018C63018EE30186C301844
:103060006C30186C30183830183830183830000090
:103070000000000000000000000000000000000050
:1030800000000000000000000000000030003000E0
:1030900030003000300030003000300030003000B0
:1030A00030003000300030003000300030003000A0
:1030B0003FFC3FFC0000000000000000000000009A
:1030C0000000000000000000000000000000000000
:1030D0000000300380300700300E00301C00303814
:1030E0000030700030E00031C00033C00037C00055
:1030F0003EE0003C7000387000303800301C00307A
:103100000E003006003007003003803001C00000A0
:1031100000000000000000000000000000000000AF
:1031200000000000000000000000000000600060DF
:10313000006000600060006000600060006000608F
:10314000006000600060006060606060606030C0CF
:103150003FC01F0000000000000000000000000051
:10316000000000000000181818181818181818186F
:10317000181818181818181818180000000000005F
:10318000000000000000000000000000000000003F
:10319000000030018030018030018030018030013A
:1031A000803001803001803001803001803FFF801D
:1031B0003FFF80300180300180300180300180305D
:1031C00001803001803001803001803001800000BA
:1031D00000000000000000000000000000000000EF
:1031E00000000000000000000000000000000000DF
:1031F000000001FC0007FF000F03801C01C0380025
:10320000C03000603000006000006000006000001E
:10321000601FE0601FE06000607000603000603898
:1032200000601C00E00F03C007FF8001FC000000ED
:10323000000000000000000000000000000000008E
:10324000000000000000000000000000000000007E
:1032500000003FFF003FFF00300000300000300062
:10326000003000003000003000003000003FFC0063
:103270003FFC003000003000003000003000003023
:10328000000030000030000030000030000000007E
:10329000000000000000000000000000000000002E
:1032A000000000000000000000000000000000001E
:1032B00000003FFF803FFF80300000300000300002
:1032C000003000003000003000003000003FFF0000
:1032D0003FFF0030000030000030000030000030C0
:1032E00000003000003000003FFF803FFF80000002
:1032F00000000000000000000000000000000000CE
:1033000000000000000000000000000000000000BD
:1033100000003FFC003FFE0030078030018030009D
:10332000C03000C0300060300060300060300060AD
:103330003000603000603000603000603000C0302D
:1033400000C03001803007803FFE003FF8000000E1
:10335000000000000000000000000000000000006D
:10336000000000000000000000000000000000005D
:10337000000001FC0007FF000F03801C01C03800A3
:10338000E03000607000006000006000006000003D
:103390006000006000006000003000603000E03835
:1033A00000C01C01C00E078007FF0001FC000000E8
:1033B000000000000000000000000000000000000D
:1033C00000000000000000000000000000000000FD
:1033D00000003FF8003FFC00300E003007003003D3
:1033E00000300300300300300700300E003FFC00C7
:1033F0003FFE003007003003803001803001803014
:1034000001803003803007003FFE003FF8000000DD
:1034100000000000000000000000000000000000AC
:10342000000000000000000000000000000000009C
:10343000000001C00001C0000360000360000770CD
:10344000000630000630000E38000C18000C180082
:10345000180C00180C001FFC003FFE003006007026
:103460000700600300600300C00180C0018000000D
:10347000000000000000000000000000000000004C
:10348000000000000000000000000000000000003C
:103490000000000000000000003FC00000FFF0003E
:1034A00003C0780007001C000E000E001C3C6700E3
:1034B00018FF630031C3E3803181C1803300C180D4
:1034C0006300C1806600C1806600C1806600C38061
:1034D000660183006601870063038600738F9C008A
:1034E00031FDF80038F8F000180000C01C00018021
:1034F0000F00070007C01E0001FFF800003FE000BA
:1035000000000000000000000000000007C01FF0E5
:103510003838301C600C600C000C001C00180030A7
:10352000006000C001C00180018001800000000037
:103530000180018000000000000000000000000089
:10354000000000000000000000000000000000007B
:1035500000000000200038001E00078000E0003856
:10356000000C003800E007801E003800200000003A
:10357000000000000000000000000000000000004B
:10358000000000000000000000000000000000003B
:1035900000000000000000007FFC7FFC0000000035
:1035A000000000007FFC7FFC000000000000000025
:1035B000000000000000000000000000000000000B
:1035C00000000000000000000000000000000000FB
:1035D000000000000004001C007801E007001C004F
:1035E00030001C00070001E00078001C000400000F
:1035F00000000000000000000000000000000000CB
:10360000000000000000000000000018180000008A
:103610000000000000000000181808081810000042
:10362000000000000000000000000018180000006A
:10363000000000000000000018180000000000005A
:1036400000000000000000000000000007C01FE0B4
:10365000383030186008600C600C600C600C301C56
:10366000383C1FEC078C000C00186018701838707C
:103670001FE00F80000000000000000000000000BC
:1036800000000000000000000000000007C01FF064
:103690001830301830183018301818300FE01FF07C
:1036A00038383018600C600C600C600C30183838FA
:1036B0001FF007C000000000000000000000000034
:1036C0000000000000000000000000007FF87FF80C
:1036D000001000300060004000C001800180030045
:1036E0000300030006000600060006000C000C00A4
:1036F0000C000C00000000000000000000000000B2
:1037000000000000000000000000000003E00FF0D7
:103710001C38381C300C3000600067C06FF07838FF
:103720007018600C600C600C600C300C301818388D
:103730000FF007C0000000000000000000000000C3
:103740000000000000000000000000001FF81FF84B
:10375000380030003000300027C07FF07838601823
:10376000000C000C000C000C000C600C70183838B9
:103770001FF00FC00000000000000000000000006B
:103780000000000000000000000000000030007099
:1037900000F000F001B00330073006300C301C3070
:1037A0001830303070307FFC7FFC0030003000304B
:1037B00000300030000000000000000000000000A9
:1037C0000000000000000000000000000FC01FE02B
:1037D00038707018601800180018007003E003F0CB
:1037E0000038001C000C000C000C600C70183838FD
:1037F0001FF007C0000000000000000000000000F3
:103800000000000000000000000000000FC01FE0EA
:103810003870603860180018001800180030003048
:10382000006000C00180030006000C00180030009A
:103830007FF87FF80000000000000000000000009A
:1038400000000000000000000000000000C000C0F8
:1038500001C003C00FC01EC018C000C000C000C01F
:1038600000C000C000C000C000C000C000C000C058
:1038700000C000C0000000000000000000000000C8
:1038800000000000000000000000000007C01FF062
:10389000383830183018600C600C600C600C600C0C
:1038A000600C600C600C600C600C301830183838FC
:1038B0001FF007C000000000000000000000000032
:1038C00000000000000003030606060C0C0C1C1888
:1038D0001818303030606060E0C000000000000068
:1038E00000000000000000000000000000000000D8
:1038F0000000000000000000303000000000000068
:1039000000000000000000000000000000000000B7
:1039100000000000000000000000000000000000A7
:10392000000000007F007F00000000000000000099
:103930000000000000000000000000000000000087
:103940000000000000000000000000000000000077
:103950000000000000000000303010103020000097
:103960000000000000000000000000000000000057
:1039700000000000030003000300030003007FF8C1
:103980007FF80300030003000300030000000000B1
:103990000000000000000000000000000000000027
:1039A000000000000000000000000000060006000B
:1039B00026407FE00F800F00198018800000000073
:1039C00000000000000000000000000000000000F7
:1039D00000000000000000000000000000000000E7
:1039E0000000000000000000000000006000300047
:1039F0003000180018000C000C000C000600060037
:103A000006000600060006000600060006000C0080
:103A10000C000C001800180030003000600000009E
:103A2000000000000000000000000000030006008D
:103A300006000C000C0018001800180030003000C0
:103A4000300030003000300030003000300018000E
:103A5000180018000C000C0006000600030000000F
:103A600000000000000060606060606060000000B6
:103A70000000000000000000000000000000000046
:103A80000000000000000000000000000000000036
:103A9000000003E0000FF0000C38001818001818A0
:103AA000001818000C30000E700007E000078000BE
:103AB0001F800038C200706700607600603E0060C2
:103AC0001C00701E00387F001FF3800FC300000031
:103AD00000000000000000000000000000000000E6
:103AE00000000000000000000000000000000000D6
:103AF00000000F00C01F81C039C18030C38030C3B7
:103B00000030C70030C60039CC001F8C000F1800F1
:103B10000018F00031F800339C00630C00630C00C7
:103B2000C30C00C30C01839C0181F80300F000006A
:103B30000000000000000000000000000000000085
:103B40000000000000000000000001000FC01FF096
:103B50003938711C610C6100610031003F000FE0D9
:103B600003F00138011C010C610C610C311C393867
:103B70001FF007C00100010000000000000000006D
:103B800000000000000000000000000006180618F9
:103B90000E300C300C300C30FFFCFFFC186018604D
:103BA000186018601860FFFCFFFC30C030C071C0A6
:103BB0006180618000000000000000000000000043
:103BC000000000000000000000000000630063002F
:103BD00063006300630063006300000000000000F6
:103BE00000000000000000000000000000000000D5
:103BF00000000000000000000000000000000000C5
:103C000000000000000018181818181818181818C4
:103C100018181818181800001818000000000000E4
:103C20000000000000000000000000000000000094
:103C30000000000000000000000000000000000084
:103C4000392E0208DD4B02081D5A02086155020890
:103C5000000000000000000014140101643C000892
:103C6000100A0D00A000FF00703C0008F04C000896
:103C700005050100B84C000806060100A44C000828
:103C80000A0A02007C4C00080A0A0200544C000890
:103C90000A0A02002C4C00080A0A0200044C000820
:103CA00006060100F04B00080A0A0200C84B000893
:103CB00006060100B44B00080D0D02008C4B0008F5
:103CC00006060100784B00080A0A0200504B000863
:103CD0000B0B0200284B000806060100144B0008DD
:103CE0000D0D0200EC4A00080A0A0200C44A00084E
:103CF00007070100B04A00080A0A0200884A0008C3
:103D000006060100744A000806060100604A000821
:103D1000060601004C4A00080A0A0200244A00086C
:103D20000A0A0200FC49000805050100E8490008EC
:103D300006060100D449000806060100C049000833
:103D400007070100AC4900080A0A0200844900087C
:103D50000F0F02005C4900080F0F020034490008F1
:103D60000F0F02000C4900080B0B0200E44800088A
:103D70000C0C0200BC4800080C0C0200944800081F
:103D80000C0C02006C4800080C0C020044480008AF
:103D90000C0C02001C4800080C0C0200F447000840
:103DA00012120300B84700080D0D020090470008EA
:103DB0000C0C0200684700080C0C02004047000889
:103DC0000C0C0200184700080C0C0200F04600081A
:103DD00005050100DC46000805050100C84600088D
:103DE00005050100B446000805050100A0460008CD
:103DF0000D0D0200784600080D0D02005046000827
:103E00000E0E0200284600080E0E020000460008B2
:103E10000E0E0200D84500080E0E0200B045000844
:103E20000E0E0200884500080B0B020060450008DA
:103E30000E0E0200384500080D0D02001045000866
:103E40000D0D0200E84400080D0D0200C0440008FA
:103E50000D0D0200984400080C0C0200704400088C
:103E60000C0C0200484400080B0B02002044000820
:103E70000A0A0200F84300080A0A0200D0430008B8
:103E80000A0A0200A84300080A0A02008043000848
:103E90000A0A0200584300080A0A020030430008D8
:103EA000101002000843000809090200E04200085F
:103EB0000A0A0200B84200080A0A020090420008FA
:103EC0000A0A0200684200080A0A0200404200088A
:103ED000050501002C4200080505010018420008F4
:103EE000050501000442000805050100F041000835
:103EF0000A0A0200C84100080A0A0200A04100089C
:103F00000A0A0200784100080A0A0200504100082B
:103F10000A0A0200284100080A0A020000410008BB
:103F20000A0A0200D84000080A0A0200B04000084D
:103F30000A0A0200884000080A0A020060400008DD
:103F40000A0A0200384000080A0A0200104000086D
:103F50000A0A0200E83F000809090200C03F000801
:103F60000A0A0200983F000809090200703F000891
:103F7000000000000000330033000000C180C18059
:103F800063006300330036001E001E000C000C00AE
:103F90000C001800780070000000000000006000B5
:103FA000600060006E007F007380618061806180CE
:103FB000618073807F006E006000600060006000C0
:103FC0000000000000000C0018000000C180C1804B
:103FD00063006300330036001E001E000C000C005E
:103FE0000C00180078007000000000000000330092
:103FF0003300000061806180618061806180618048
:10400000618063807F803D80000000000000000030
:104010000000000000001E0033000000618061808D
:104020006180618061806180618063807F803D808C
:10403000000000000000000000000000000006007A
:104040000C0000006180618061806180618061801E
:10405000618063807F803D800000000000000000E0
:1040600000000000000018000C000000618061806A
:104070006180618061806180618063807F803D803C
:104080000000000000000000000000000000000030
:10409000000000001D803F00730067806D80698014
:1040A000798033807F006E00000000000000000077
:1040B0000000000000000000000000000C000C00E8
:1040C0000000FFC0FFC000000C000C00000000005A
:1040D00000000000000000000000000000003300AD
:1040E000330000001E003F007380618061806180AA
:1040F000618073803F001E0000000000000000008F
:10410000000000000D001F00160000001E003F0010
:104110007380618061806180618073803F001E00D8
:1041200000000000000000000000000000001E0071
:10413000330000001E003F00738061806180618059
:10414000618073803F001E0000000000000000003E
:1041500000000000000006000C0000001E003F00F0
:104160007380618061806180618073803F001E0088
:104170000000000000000000000000000000180027
:104180000C0000001E003F00738061806180618030
:10419000618073803F001E000000000000000000EE
:1041A000000000000D001F00160000006F007F805F
:1041B00071806180618061806180618061806180E7
:1041C00000000000000000000000000000000A00E5
:1041D0000C0012001F003F007380618061806180CD
:1041E000618073803F001E0000000000000000009E
:1041F000000000C8C800303030303030303030304F
:104200000000000000000078C8003030303030304E
:104210003030303000000000000000183000303036
:1042200030303030303030300000000000000060AE
:10423000300030303030303030303030000000006E
:104240000000000000003300330000001E003F00AB
:10425000730061807F807F80600071803F001E005E
:1042600000000000000000000000000000001E0030
:10427000330000001E003F00730061807F807F805C
:10428000600071803F001E00000000000000000080
:1042900000000000000006000C0000001E003F00AF
:1042A000730061807F807F80600071803F001E000E
:1042B00000000000000000000000000000001800E6
:1042C0000C0000001E003F00730061807F807F8033
:1042D000600071803F001E00000000000000000030
:1042E0000000000000000000000000001E003F0071
:1042F0007300600060006000600073003F001E00FB
:1043000008000C000400180000000000000000007D
:10431000000000001F3C3FFE61C607833FFF79FF9E
:10432000618063C77FFE3E3C00000000000000008B
:10433000000000000E000A000E0000001F003F8079
:10434000618007803F807980618063807F803D80CD
:10435000000000000000000000000000000033002A
:10436000330000001F003F80618007803F8079801C
:10437000618063807F803D800000000000000000BD
:10438000000000000D001F00160000001F003F800D
:10439000618007803F807980618063807F803D807D
:1043A00000000000000000000000000000001E00EF
:1043B000330000001F003F80618007803F807980CC
:1043C000618063807F803D8000000000000000006D
:1043D00000000000000006000C0000001F003F80ED
:1043E000618007803F807980618063807F803D802D
:1043F00000000000000000000000000000000C00B1
:10440000060000001F003F80618007803F807980A8
:10441000618063807F803D8000000000000000001C
:104420000000000000001C003F0063006300620009
:1044300066006600670061C060C06CC06FC0670046
:10444000000000000000000000000000000060000C
:1044500060007F807FC060E060606060606060E0FE
:104460007FC07F806000600000000000000000004E
:10447000030006000000E070606030C039C01980A1
:104480000F000F00060006000600060006000600EA
:1044900000000000000000000CC00CC000006030F4
:1044A000603060306030603060306030603060308C
:1044B000603070703FE00F800000000000000000DE
:1044C00007800CC0000060306030603060306030C9
:1044D0006030603060306030603070703FE00F807E
:1044E0000000000000000000030006000000603033
:1044F000603060306030603060306030603060303C
:10450000603070703FE00F8000000000000000008D
:1045100006000300000060306030603060306030C2
:104520006030603060306030603070703FE00F802D
:1045300000000000000000000000000000000FD894
:104540001FF03870307860D8619863186618661864
:104550007C3038703FE06FC00000000000000000B9
:1045600000000000000000000000000031803B80DF
:104570001F000E001F003B80318000000000000083
:1045800000000000000000000CC00CC0000007C0CC
:104590001FE03870303060186018601860186018BC
:1045A000303038701FE0078000000000000000007D
:1045B00003400780058007C01FE038703030601866
:1045C0006018601860186018303038701FE007807D
:1045D000000000000000000007800CC0000007C0C1
:1045E0001FE038703030601860186018601860186C
:1045F000303038701FE0078000000000000000002D
:1046000001800300000007C01FE0387030306018E0
:104610006018601860186018303038701FE007802C
:10462000000000000000000006000300000007C0BA
:104630001FE038703030601860186018601860181B
:10464000303038701FE007800000000000000000DC
:1046500006800F000B0060307030783078306C309E
:1046600066306730633061B060F060F06070603079
:1046700000000000000000000000000000007F803B
:104680007FC060E060706030FE30FE3060306030CF
:10469000607060E07FC07F800000000000000000CC
:1046A00098980060606060606060606060606060FA
:1046B00000000000F0980060606060606060606012
:1046C00060606060000000003060006060606060FA
:1046D000606060606060606000000000C06000605A
:1046E000606060606060606060606060000000004A
:1046F0001980198000007FE07FE0600060006000AA
:104700007FC07FC060006000600060007FE07FE0ED
:1047100000000000000000000F00198000007FE092
:104720007FE06000600060007FC07FC060006000CC
:10473000600060007FE07FE00000000000000000FB
:104740000300060000007FE07FE060006000600082
:104750007FC07FC060006000600060007FE07FE09D
:1047600000000000000000000C00060000007FE0D8
:104770007FE06000600060007FC07FC0600060007C
:10478000600060007FE07FE00000000000000000AB
:104790000000000000000F801FE038703030600023
:1047A0006000600060006000303038601FE007800B
:1047B00002000300010006000000000000000000ED
:1047C0000003FF8003FF800660000660000C6000AD
:1047D000187F80187F803060003FE0007FE000603D
:1047E0006000C07F80C07F800000000000000000EB
:1047F0000000000000000E000A000E000E001B006A
:104800001B001B00318031803F807FC060C060C0D2
:10481000C060C06000000000000000001980198026
:1048200000000E000E001B001B001B0031803180B9
:104830003F807FC060C060C0C060C06000000000FA
:10484000000000000D001E0016000E000E001B00F0
:104850001B001B00318031803F807FC060C060C082
:10486000C060C06000000000000000000F00198060
:1048700000000E000E001B001B001B003180318069
:104880003F807FC060C060C0C060C06000000000AA
:104890000000000006000C0000000E000E001B00CF
:1048A0001B001B00318031803F807FC060C060C032
:1048B000C060C06000000000000000000C000600A6
:1048C00000000E000E001B001B001B003180318019
:1048D0003F807FC060C060C0C060C060000000005A
:1048E00000000000000000000000000000000000C8
:1048F0000C000C0000000C000C000C00180038002C
:104900007000600060C071C03F801F0000000000A8
:104910000000700CD818183060601860D8C0718C16
:10492000031C031C063C0C6C187E180C00000000D5
:10493000000000000000000000001818381878304F
:10494000586018C018C0199C03260606060C0C18DF
:104950001830303E000000000000000000000000A1
:104960000000181838307860586018C019801B0C87
:10497000031C061C0C2C186C187E300C0000000068
:104980000000000000000000000000000000000027
:104990000000CC00660033001980198033006600E7
:1049A000CC00000000000000000000000000003803
:1049B00044C6C6C6643800000000000000000000C5
:1049C000000000183878581818180000000000007F
:1049D00000000000000000000000000000000000D7
:1049E0000000000020301060000000000000000007
:1049F0000030300000000000000000000000000057
:104A000000003FC07FC0F980F980F980F98079808B
:104A100019801980198019801980198019801980CE
:104A200019800000000000000000000000000000ED
:104A3000618061806180618061806180618073805C
:104A40007F806D80600060006000600000000018E2
:104A50003000000000000000000000000000000026
:104A600000000070D8186018D87000000000000026
:104A70000000000000000070D818306040F800000E
:104A80000000000000000000000000000000000026
:104A900000000C000C000C000C00FFC0FFC00C005C
:104AA0000C000C00FFC0FFC0000000000000000070
:104AB00000000038444444380000000000000000BA
:104AC00000000000FFC0FFC0000000000000000068
:104AD00000000000000000000000000000000000D6
:104AE00000000000000000000000000000000000C6
:104AF00000000F80306040104F90884888488F88B1
:104B0000890888884850401030600F8000000000FD
:104B10000000000000000000000000000000F8F8A5
:104B20000000000000000000000000000000000085
:104B30000000000000007FC07FC000C000C000C0B7
:104B40000000000000000000000000000000000065
:104B500000000000000000000000000000000CC089
:104B60001980330066006600330019800CC0000015
:104B7000000000000000000000000078CC0C7CCC9D
:104B8000CC7C0000000000000000000000000000DD
:104B900000000F80306040104790884890089008CF
:104BA000900888484790401030600F800000000057
:104BB00000000000000000CCCC000000000000005D
:104BC00000000000000000000000000000001E00C7
:104BD0003F003300300018003C0066006300318065
:104BE00019800F0006000300630073003F001E00E1
:104BF00000000030303030303030000000303030D5
:104C000030303030000000000000C0C061806180A2
:104C1000330033001E00FFC0FFC00C00FFC0FFC008
:104C20000C000C000000000000000000000000006C
:104C300000000000000000005D007F0063006300D2
:104C400063007F005D000000000000000000000025
:104C5000000000000000000000001E003F00718006
:104C6000600060006000FC00FC0030002000780064
:104C7000FF8087000000000000000000000000002E
:104C800000000200020002001E003F007780650065
:104C900064006C0069803B803F001E001000100023
:104CA00010001000000000000000303000303030F4
:104CB0003030303030303030000000000000000074
:104CC000000000000000000000000000392E020873
:104CD000DD4B02081D5A0208615502080000000061
:104CE0000000000014140101F04C0008100A0D002F
:104CF00020007E00FC4C00080000000005050100BB
:104D0000885C000806060100745C000806060100C5
:104D1000605C00080A0A0200385C00080A0A020007
:104D2000105C000810100200E85B00080C0C020088
:104D3000C05B000803030100AC5B0008060601002D
:104D4000985B000806060100845B00080707010065
:104D5000705B00080B0B0200485B000805050100B2
:104D6000345B000806060100205B00080505010011
:104D70000C5B000805050100F85A00080A0A020049
:104D8000D05A00080A0A0200A85A00080A0A0200BB
:104D9000805A00080A0A0200585A00080A0A02004B
:104DA000305A00080A0A0200085A00080A0A0200DB
:104DB000E05900080A0A0200B85900080A0A02006D
:104DC000905900080A0A0200685900080505010008
:104DD0005459000805050100405900080B0B02005A
:104DE000185900080B0B0200F05800080B0B0200CA
:104DF000C85800080A0A0200A0580008121203004E
:104E0000645800080B0B02003C5800080C0C020010
:104E1000145800080D0D0200EC5700080D0D02009B
:104E2000C45700080C0C02009C5700080B0B020032
:104E3000745700080E0E02004C5700080D0D0200BA
:104E40002457000804040100105700080909020053
:104E5000E85600080C0C0200C05600080A0A0200BE
:104E6000985600080F0F0200705600080D0D020042
:104E7000485600080E0E0200205600080C0C0200D6
:104E8000F85500080E0E0200D05500080D0D020066
:104E9000A85500080C0C0200805500080C0C0200FC
:104EA000585500080D0D0200305500080B0B02008C
:104EB0000855000811110300CC5400080B0B020028
:104EC000A45400080C0C02007C5400080B0B0200D8
:104ED0005454000805050100405400080505010070
:104EE0002C540008050501001854000807070100AC
:104EF000045400080A0A0200DC53000806060100F8
:104F0000C85300080A0A0200A05300080A0A020057
:104F10007853000809090200505300080A0A0200E9
:104F2000285300080A0A0200005300080505010082
:104F3000EC5200080A0A0200C45200080A0A0200E1
:104F40009C52000804040100885200080404010077
:104F500074520008090902004C52000804040100C0
:104F6000385200080E0E0200105200080A0A020011
:104F7000E85100080A0A0200C05100080A0A0200AB
:104F8000985100080A0A0200705100080606010044
:104F90005C510008090902003451000805050100B0
:104FA000205100080A0A0200F8500008090902000E
:104FB000D05000080D0D0200A8500008080801009C
:104FC00094500008090902006C500008080801000C
:104FD000585000080606010044500008060601006B
:104FE00030500008060601001C5000080B0B0200A0
:104FF000F44F000800000000000000000000000066
:10500000000000007000FC408FC003800000000022
:10501000000000000000000000000000000000E0B0
:10502000F030303030381C1C383030303030F0E068
:105030000000003030303030303030303030303000
:10504000303030300000001C3C3030303070E0E058
:105050007030303030303C1C000000000000FFFF9A
:10506000070E1C3870E0FFFF000000000000000089
:105070000000000000000000C180C18063006300E8
:10508000330036001E001E000C000C000C0018003F
:1050900078007000000000000000C366663C18182D
:1050A0003C6666C300000000000000000000000035
:1050B00000000000C218C718C71865306DB06DB089
:1050C00028A038E038E018C0000000000000000010
:1050D000000000000000000000000000C180C1804E
:1050E000630063006300360036001C001C000800EB
:1050F00000000000000000000000000000000000B0
:105100000000000061806180618061806180618059
:10511000618063807F803D8000000000000000000F
:10512000000000606060F0F060606060606070705F
:10513000000000000000000000000000000000006F
:105140003E007F00630070003C000E00070063001B
:105150007F003E0000000000000000000000000092
:1051600000006C7C70606060606060600000000047
:105170000000000000000000000000001D803F80D3
:105180007380618061806180618073803F801D8059
:10519000018001800180018000000000000000000B
:1051A000000000006E007F0073806180618061807C
:1051B000618073807F006E006000600060006000AE
:1051C0000000000000000000000000001E003F0082
:1051D0007380618061806180618073803F001E0008
:1051E00000000000000000000000000000000000BF
:1051F000000000006F007F807180618061806180AD
:10520000618061806180618000000000000000001A
:105210000000000000000000000000006E707EF83A
:105220007398631863186318631863186318631816
:10523000000000000000000000000060606060608E
:10524000606060606060606000000000000000005E
:105250000000600060006000638067006E007800FE
:105260007C006C0066006600630063800000000044
:10527000000000000000006060006060606060602E
:10528000606060606060E0C00000006060006060BE
:10529000606060606060606000000000000000000E
:1052A00000006000600060006F007F80718061809E
:1052B00061806180618061806180618000000000A8
:1052C00000000000000000000000000000000000DE
:1052D0001D803F8073806180618061806180738008
:1052E0003F801D80018063807F003E000000003809
:1052F0007860F8F8606060606060606000000000E6
:105300000000000000000000000000001E003F0040
:10531000730061807F807F80600071803F001E008D
:1053200000000000000000000000000000000180FC
:10533000018001801D803F80738061806180618079
:10534000618073803F801D8000000000000000002D
:105350000000000000000000000000001E003F00F0
:105360007300600060006000600073003F001E007A
:1053700000000000000000000000000000006000CD
:10538000600060006E007F007380618061806180DA
:10539000618073807F006E0000000000000000004C
:1053A0000000000000000000000000001F003F801F
:1053B000618007803F807980618063807F803D804D
:1053C000000000000000000000000060300000004D
:1053D00000000000000000000000000000000000CD
:1053E00000000000000000000000000000000000BD
:1053F00000000000000000000000000000000000AD
:10540000FFC0FFC00000001038286C6C44C60000CC
:105410000000000000000000000000F0F03030301C
:1054200030303030303030303030F0F0000000C0FC
:10543000C0606060303030181818080800000000A4
:10544000000000787860606060606060606060604C
:10545000606078780000000000007FC07FC001809D
:105460000300070006000C00180038003000600040
:10547000FFC0FFC0000000000000000000000000AE
:105480000000E070606030C039C019800F000F006C
:1054900006000600060006000600060000000000E8
:1054A0000000000000000000000071C031801B00FF
:1054B0001B000E000E000E001B001B003B80318005
:1054C00060C0E0E0000000000000000000000000FC
:1054D0000000000000C1C180C1C18063630063633C
:1054E00000636300636300662300363600363600CF
:1054F0003636003636001C1C001C1C000000000064
:105500000000000000000000000000000000C0607B
:10551000C06060C060C060C03180318031801B00DD
:105520001B001B000E000E00000000000000000029
:10553000000000000000603060306030603060309B
:105540006030603060306030603070703FE00F80FD
:1055500000000000000000000000000000007FE0EC
:105560007FE00600060006000600060006000600B2
:105570000600060006000600000000000000000013
:105580000000000000000F803FC070E0606060001D
:105590003C001F8003C00060606070E03FC01F805F
:1055A00000000000000000000000000000007FC0BC
:1055B0007FE06070603060707FE07FC0618061C0BC
:1055C00060E0606060706038000000000000000073
:1055D0000000000000000FC01FE038703038601875
:1055E000601860186018601831B038E01FE00FB81C
:1055F00000000000000000000000000000007F80AC
:105600007FC060E06060606060E07FC07F806000BD
:10561000600060006000600000000000000000000A
:1056200000000000000007C01FE038703030601834
:105630006018601860186018303038701FE00780FC
:1056400000000000000000000000000000006030CA
:105650007030783078306C3066306730633061B0ED
:1056600060F060F06070603000000000000000003A
:10567000000000000000701C783C783C783C6C6CAA
:105680006C6C6C6C644C66CC66CC66CC638C638C46
:1056900000000000000000000000000000006000AA
:1056A00060006000600060006000600060006000FA
:1056B000600060007F807F8000000000000000002C
:1056C00000000000000060E061C0638067006E00C1
:1056D0007C007E0077006380618061C060E0607064
:1056E00000000000000000000000000000000300B7
:1056F0000300030003000300030003000300030092
:10570000630063007E003C00000000000000000019
:1057100000000060606060606060606060606060A9
:1057200000000000000000000000603060306030C9
:10573000603060307FF07FF060306030603060302B
:105740006030603000000000000000000000000039
:10575000000007C01FF0383030186000600061F8AA
:1057600061F86018301838381FF007C000000000DA
:10577000000000000000000000007FC07FC060004B
:10578000600060007F807F806000600060006000DB
:105790006000600000000000000000000000000049
:1057A00000007FE07FE06000600060007FC07FC09D
:1057B00060006000600060007FE07FE000000000AB
:1057C000000000000000000000007F807FC060E05B
:1057D000607060306030603060306030607060E019
:1057E0007FC07F800000000000000000000000007B
:1057F00000000F801FE038703030600060006000F3
:1058000060006000303038601FE00780000000005A
:10581000000000000000000000007F807FC060608A
:10582000606060607FC07FC060606060606060E0FA
:105830007FC07F800000000000000000000000002A
:1058400000000E000E001B001B001B003180318089
:105850003F807FC060C060C0C060C06000000000CA
:105860000000000000000000000000000001F8003F
:1058700007FE000E070018EF8031FDC03338C06707
:1058800018C06618C06610C066318067338073FF29
:105890000033BC003801C01E03800FFF0003FC0072
:1058A0000000000000001E003F0073806180018046
:1058B000030006000C001800180000001800180073
:1058C00000000000000000000000000000000000D8
:1058D0000000400070003E00078000C007803E00CE
:1058E0007000400000000000000000000000000008
:1058F0000000000000000000000000007FC07FC02A
:10590000000000007FC07FC0000000000000000019
:105910000000000000000000000000000000000087
:105920000000004001C00F803C0060003C000F8080
:1059300001C0004000000000000000000000000066
:105940000000000000003030000000000000303097
:1059500010200000000000000000303000000000B7
:1059600000003030000000000000000000001E00B9
:105970003F0061806180618063803F801D80018085
:10598000018063003F001E000000000000000000D6
:105990000000000000001E003F0061806180618007
:1059A0003F003F0061806180618061803F001E0098
:1059B00000000000000000000000000000007F80E8
:1059C0007F8001000300060006000C000C000C00A4
:1059D0000C00180018001800000000000000000073
:1059E0000000000000001E003F00318060006000E9
:1059F0006E007F0071806180618031803F001E00F9
:105A000000000000000000000000000000003F0057
:105A10003F00300060006E007F00618001800180E7
:105A2000618061803F001E00000000000000000057
:105A300000000000000006000E000E001E003600F0
:105A400036006600C600FF80FF80060006000600E4
:105A500000000000000000000000000000001C002A
:105A60003F006300030003000E000F00018001806F
:105A7000618061803F001E00000000000000000007
:105A80000000000000001E003F0073806180018064
:105A90000180030006000C00180030007F807F802A
:105AA00000000000000000000000000000000600F0
:105AB0000E001E0036002600060006000600060046
:105AC00006000600060006000000000000000000BE
:105AD0000000000000001E003F00738061806180B4
